:020000040800F2
:100000000080002049B8000855730008617300089B
:1000100000000000000000000000000000000000E0
:100020000000000000000000000000007D730008D8
:1000300000000000000000008773000891730008B2
:1000400091B8000891B8000891B8000891B800086C
:1000500091B8000891B8000891B8000891B800085C
:1000600091B8000891B8000891B8000891B800084C
:1000700091B8000891B8000891B8000891B800083C
:1000800091B8000891B8000891B8000891B800082C
:1000900091B8000891B80008A573000891B800084D
:1000A00091B8000891B8000891B8000891B800080C
:0C00B00091B80008BD73000891B800086A
:1000BC000448054B10B5834203D0044B002B00D0F1
:1000CC00984710BD50000020500000200000000098
:1000DC0006480749091A8910CB0F591810B5491051
:1000EC0003D0044B002B00D0984710BD50000020CB
:1000FC00500000200000000010B5074C2378002BA6
:10010C0009D1FFF7D5FF054B002B02D0044800E0C6
:10011C0000BF0123237010BD500000200000000020
:10012C0014BD0008054B10B5002B03D0044905483D
:10013C0000E000BFFFF7CCFF10BDC0460000000080
:10014C005400002014BD0008002243088B4274D3D5
:10015C0003098B425FD3030A8B4244D3030B8B42BC
:10016C0028D3030C8B420DD3FF22090212BA030CC5
:10017C008B4202D31212090265D0030B8B4219D3A6
:10018C0000E0090AC30B8B4201D3CB03C01A5241C6
:10019C00830B8B4201D38B03C01A5241430B8B420E
:1001AC0001D34B03C01A5241030B8B4201D30B03F7
:1001BC00C01A5241C30A8B4201D3CB02C01A52411E
:1001CC00830A8B4201D38B02C01A5241430A8B42E1
:1001DC0001D34B02C01A5241030A8B4201D30B02CA
:1001EC00C01A5241CDD2C3098B4201D3CB01C01AE4
:1001FC00524183098B4201D38B01C01A52414309EE
:10020C008B4201D34B01C01A524103098B4201D3DB
:10021C000B01C01A5241C3088B4201D3CB00C01A48
:10022C00524183088B4201D38B00C01A52414308C0
:10023C008B4201D34B00C01A5241411A00D20146E5
:10024C00524110467047FFE701B5002000F006F858
:10025C0002BDC0460029F7D076E770477047C0460C
:10026C00F0B5CE46474615042D0C2E0080B507047C
:10027C00140C3F0C9946030C7E435D436743634368
:10028C007F19340CE4199C46A54203D980235B02E8
:10029C009846C4444B4643435143250C36046544AD
:1002AC00360C2404A4195B19591820000CBC904678
:1002BC009946F0BDD0B5012602000B00134F7642D3
:1002CC00B6185F4104001248874219D9520504D070
:1002DC008023E40AE4021B011C43080001F054FFD4
:1002EC0000220C4B01F096F906000F00200001F0E3
:1002FC0085FF32003B0000F06FFB02F003F8D0BD2D
:10030C008742EAD1B01CE1D8E7E7C046FFFF1F00E7
:10031C00FFFF3F000000F041F8B557464E464546FA
:10032C00DE464402E0B546008846640A360EC70F26
:10033C00002E63D0FF2E24D08023E400DB041C436A
:10034C00002399469B467F3E434642465D02D20FB0
:10035C005B006D0A1B0E9046924665D0FF2B55D064
:10036C0080220021ED00D2047F3B1543F61A434650
:10037C004A467B400F2A00D98DE06D489200825886
:10038C009746002C54D108239946063BFF269B46E2
:10039C00DAE70025534602291BD0032900D1BFE020
:1003AC00012928D030007F30002820DD6A0704D0D6
:1003BC000F222A40042A00D004352A0103D530002C
:1003CC005C4A80301540FE2803DCAC01640AC2B2E2
:1003DC0001E0FF2200246402D205600ADB0710430F
:1003EC0018433CBC90469946A246AB46F8BD012248
:1003FC00101A1B287CDD00220024ECE7002C1DD1F8
:10040C0004239946033B00269B469DE7FF3E002DA7
:10041C0020D1022143464A467B400A430F2AD8D8B2
:10042C004548920082589746002D19D10121F1E7D9
:10043C000C239946093BFF269B4685E7200001F0DB
:10044C00E5FF7626431F9C4000237642361A9946D8
:10045C009B4679E74A4603231A439146032186E7D4
:10046C00280001F0D3FF431F36189D40763600213B
:10047C007DE780240023E403FF22ACE700258023E2
:10048C00DB031C4228D01D4226D12B435C02640A9C
:10049C004346FF229FE762016C01A24224D21B213A
:1004AC000025013E012710006D005200002801DBE1
:1004BC00944201D8121B3D4301390029F3D1140099
:1004CC00621E944125436DE7BA46594625005346B2
:1004DC00022900D061E77CE78023DB031C43640224
:1004EC00640A3B00FF2276E7121B1A210125D9E78B
:1004FC009E362A00B5402C00C240651EAC41144308
:10050C00620704D00F222240042A00D00434620176
:10051C0003D4A401640A00225DE7012200245AE7F7
:10052C008024E4032C436402640AFF2253E7C04690
:10053C008CB90008FFFFFFF7CCB90008F8B54746A7
:10054C00CE464400C20F80B547024802400A84469A
:10055C00664648007F0A240EF60025009046FB00F4
:10056C00000EC90FB146FF2800D185E0012671406D
:10057C00261A914257D0002E43DD002800D07FE090
:10058C004946002900D1AAE0013E002E00D0F7E038
:10059C005B1A5A0100D48BE09B019C09200001F0EE
:1005AC0035FF05388440854200DDD3E0451B230030
:1005BC0020200135EB40451BAC40621E9441234387
:1005CC00072400251C40012241460A40002C04D07F
:1005DC000F211940042900D00433590100D480E0C4
:1005EC000135ECB2FF2D00D0A3E0FF2400235B0209
:1005FC00E405580AD207204310430CBC9046994698
:10060C00F8BD002E74D1601CC0B2012800DCA7E03C
:10061C004A469C1A620100D5B6E0002CBED10022DD
:10062C0000240023E3E7002E00DC85E0002846D000
:10063C00FF2C49D080224846D20410438146012227
:10064C001B2E09DC20204C46801B84404A4620008F
:10065C00F240441EA04102439B185A0128D5013593
:10066C00FF2D00D1A8E00122072494491A405B0811
:10067C000B4013431C40A6E7002E00D078E775E72B
:10068C00FF2C54D080224946D204114389460122C2
:10069C001B2E09DC20214846891B88404A46010054
:1006AC00F240481E81410A439B1A5A0100D573E758
:1006BC00012241460A40590700D089E711E048461B
:1006CC00002858D1FF2C0CD1DB08002B00D18CE773
:1006DC008020C00303435B025B0AFF2487E7FF2CE7
:1006EC0025D0DB08FF2DF0D05B025B0AECB27EE775
:1006FC00002C4DD0FF2818D08024E40472422343F0
:10070C001B2A00DDC4E01C002025D440AA1A93400B
:10071C005A1E934123434A460500D31A884638E7AC
:10072C00721CF8D0F243FF28EAD10A004B46FF2591
:10073C00D7E79B015B0A5AE7002E41D1651CE9B251
:10074C00012945DDFF2D00D14FE707244B445B0801
:10075C001C4038E707225A4B2D1A2340144032E72D
:10076C00002C1DD1002B7AD14B46002B00D191E0EF
:10077C000A000025B5E7013E002E19D14B446CE769
:10078C00FF2C84D1FF25ACE74A468846D41A05E7EE
:10079C00002BC5D10A00FF28C8D005004B46A0E7A6
:1007AC00002B49D14B46002B77D00A00FF2598E748
:1007BC00FF2C00D043E787E70A00FF24002316E74D
:1007CC00002C15D1002B57D1FF28E6D14B467BE7E7
:1007DC00002C20D1002B57D04946002953D04B4434
:1007EC005A0168D50724364A1C4001251340EAE615
:1007FC00FF28EBD08022D204764213431B2E53DC0D
:10080C002025AD1B1A00AB40F2405C1EA3411343E4
:10081C004B44050021E7002BD8D04946002900D1D4
:10082C0052E78021C9030F4200D14DE760460842D0
:10083C0000D049E74B4647E74846FF25002800D142
:10084C004FE78022D203174204D06046104201D1F8
:10085C004B46884601224146FF250A4041E748465F
:10086C0000281FD01A1A500120D54A460724D31A43
:10087C001C4088460025A6E6741CC9D0F643FF2808
:10088C00BCD14B4620E799464B460025DB082BE7AD
:10089C00012340E700220023A9E680230022DB038A
:1008AC00FF24A4E600251CE70123B1E7002AF1D0C0
:1008BC0013000025FCE60025FAE6C046FFFFFF7D8D
:1008CC00FFFFFFFB70B500283DD0C317C5185D4076
:1008DC00C40F280001F09AFD9E22121A962A07DCFA
:1008EC00D2B2082833DD083885406802400A23E07C
:1008FC00992A0BDD052329001B1AD94003001B3351
:10090C009D402B005D1EAB4119430D00052801DDF8
:10091C00431F9D402B000F490B406E0709D00F263B
:10092C003540042D05D004335D0102D59F220B40C8
:10093C00121A9B01580AD2B24002D205400AE407AF
:10094C001043204370BD002400220020F4E768020D
:10095C00400AF1E7FFFFFFFB70B5041E34D001F035
:10096C0055FD9E22121A962A07DCD2B208282EDDDB
:10097C00083884406002400A21E0992A09DD03000E
:10098C0021001B3399404B1E994105231B1ADC4057
:10099C000C43052801DD431F9C4023000D490B40EF
:1009AC00650709D00F252C40042C05D004335C01BD
:1009BC0002D59F220B40121A9B01580AD2B2400258
:1009CC00D205400A104370BD00220020F7E76002F8
:1009DC00400AF4E7FFFFFFFBF0B54F464646D6460C
:1009EC000C000903C0B5490A470F5E0039431F03C9
:1009FC00DB0F9C4665007B0A570F1F436D0DE40F00
:100A0C00760DA146C000B846D200AB1B64457BD026
:100A1C00002B5FDD002E00D0A4E03E00164300D179
:100A2C0012E15E1E002E00D09EE1871A4346B842AA
:100A3C0080410125C91A4042091A0B0200D431E148
:100A4C0049024E0A002E00D16EE1300001F0DEFCAE
:100A5C000300083B1F2B00DD61E120223900D21A74
:100A6C009E40D1409F400E439D4200DD51E15D1BF5
:100A7C006B1C1F2B00DD7CE12021C91A3D003000CE
:100A8C008F408840DD40791E8F413100072228437A
:100A9C00D940002507433A40002A09D00F233B4098
:100AAC00042B05D03B1DBB42BF417F42C9191F001F
:100ABC000B0200D426E26A1CC64B55056D0D9A42FA
:100ACC0000D106E1C44AFF080A40530752023B43D7
:100ADC00120B8EE0002B00D0B8E06B1C5B055B0D9D
:100AEC00012B00DC30E1871A4346B842B641CB1AE1
:100AFC0076429E1B330200D54CE13B003343A1D11F
:100B0C0000220024002570E0002B00DCE5E0002E24
:100B1C0000D183E0AF4EB54260D080263604374317
:100B2C00B846382B00DC3EE1434613431F007A1EC7
:100B3C0097413F1887428041404209180B0200D46C
:100B4C00B0E0A44B01359D4200D1C3E0A24A7B0822
:100B5C000A4001210F401F435108D30707221F43AE
:100B6C003A4099E79B4EB54238D08026360437433D
:100B7C00B846382B00DDDCE01F2B00DC30E11E001A
:100B8C004746203EF740BC46202B04D04026F31AA3
:100B9C0046469E403243170063467A1E97411F43D8
:100BAC00CCE0002B00D104E24346134300D159E1C1
:100BBC004B07C00818438023C9081B03194208D0EF
:100BCC004546ED081D4204D14346D0085907084359
:100BDC002900420FC9007F4D1143C0004B07CA08C2
:100BEC007C49C00803438D4268D012036D05120B7B
:100BFC006D0D002112031800130B0A0D12051A4378
:100C0C00764B2D0513402B435B00E4075B08234315
:100C1C0019001CBC90469946A246F0BD3E001643F6
:100C2C0012D05E1E002E00D000E187188742804152
:100C3C0041444042091801250B0233D5022585E7B2
:100C4C0064463300414610001D00C7E7002D00D05C
:100C5C00DAE00C000443F3D05C1C00D19FE15D4C46
:100C6C00A64200D12FE1DB43382B00DD66E11F2BC0
:100C7C0000DD83E120240500E41A0F00DD40D9409B
:100C8C00A0404346A7405B1A441EA04198462F4300
:100C9C003843171ABA42924143465242991A644653
:100CAC003500CAE607223A40002A00D0F6E64B0788
:100CBC00CA084849FF083B438D4296D1190011439D
:100CCC0000D19EE1802109030A431203120B414D0E
:100CDC008FE71500002200238BE7002B00D0C7E024
:100CEC006B1C5F057F0D012F00DCF1E0394DAB4231
:100CFC0000D1B9E085180A00854289414244494235
:100D0C0051180722CF076D082F4349083A401D00A0
:100D1C00C2E607223049ED1A31403A40BCE63E00AB
:100D2C002838864000279FE6380001F06FFB203002
:100D3C008EE6434613431F007A1E9741C71BB842E9
:100D4C0080414042091A78E60E003B0006431343EB
:100D5C00002D61D1002E00D0F4E0002B00D11BE15E
:100D6C0064463900100039E71A4FBB427AD0330081
:100D7C00FFE630001F3DE840202B03D04021CB1A6A
:100D8C009E4037437B1E9F41072207433A40002178
:100D9C00002589E7171A4346BA42B641591A7642DA
:100DAC008E1B64464EE61F2B00DDADE02026474629
:100DBC00F61AB740B9461700B246DF404E463E43DE
:100DCC0037005646B240561EB24117434246DA40EF
:100DDC008918AEE6FF070000FFFF7FFFFFFF0F80C3
:100DEC0020264746F61AB740B9461700B246DF40F0
:100DFC004E463E4337005646B240561EB24117434C
:100E0C004246DA40891A99E77F4CA6425BD080248F
:100E1C0024045B42214327E7002E0CD1002B00D188
:100E2C00CBE0644639001000774DD7E6764FBB42D5
:100E3C0018D0330075E6002B14D04B07C0081843AC
:100E4C008023C9081B03194207D0FC081C4204D19B
:100E5C007907D0080843E14621004C46420FC900EF
:100E6C001143C000684DB9E61D0000220023C0E606
:100E7C00002D5BD10D00054300D1E2E65D1C00D1D5
:100E8C00B0E0614DAE421FD0DB43382B71DC1F2B21
:100E9C0000DD96E020250F00ED1AAF40B9460700A3
:100EAC00AA46DF404D463D432F005546A840D94049
:100EBC00451EA84188440743BF18974292415142AE
:100ECC00414435003AE6644635004146100085E65B
:100EDC000B000343002D00D063E6002BF5D04346F6
:100EEC00134300D17AE68718874280410722414498
:100EFC00404209183A400B0200D4D5E6434B013569
:100F0C001940C9E5380069E61E004746203EF74007
:100F1C00BC46202B04D04026F31A46469E40324352
:100F2C00170063467A1E97411F4302E6364DAE42C8
:100F3C00CAD080252D045B422943A6E70843411EF5
:100F4C008841A6E6002B00D148E6871A4346B842F2
:100F5C00B641CB1A76429E1B33024BD5171A434629
:100F6C00BA429241591A5242891A072264463A40AF
:100F7C0092E501430F00791E8F419DE71C000F0085
:100F8C00203CE740202B03D04024E31A994008432F
:100F9C00411E884138437CE60022002425E6171ABE
:100FAC004346BA429241591A5242891A6446350054
:100FBC0043E541461000144D10E680220024120334
:100FCC0080E61D000F00203DEF40BC46202B03D0D7
:100FDC004025EB1A9940084307006346781E874169
:100FEC001F4369E7871897429B4141445B42C918EC
:100FFC003500A3E53B003343CED0072231003A4005
:10100C0052E600231A00F4E5FF070000FFFF7FFF04
:10101C00F0B55746DE464E464546E0B583460700DA
:10102C000E03480085B092461C00360B400DCD0FC8
:10103C00002800D19DE0954B984239D08023F600D2
:10104C001B041E43924A7B0F33439946944603007C
:10105C006344009300230026FF00029323031B0B21
:10106C0098466300E40F52465B0D019400D1B3E047
:10107C0086498B4200D19EE04246D1008022120468
:10108C000A435146490F11438B46814952468C46BF
:10109C0000996344CB1A0021D20000932B006340CB
:1010AC009A460F2E00D905E17A4BB6009B599F4604
:1010BC005B463343994600D0B8E00223082600274C
:1010CC0000900293CAE7CB463A0002990195019B26
:1010DC009A46022927D0032900D180E2012944D065
:1010EC006D49009B8C4663441C00002C38DD530773
:1010FC0000D013E2D2085B46DB0109D55946674B99
:10110C0019408B468021C9008C46009B63441C000F
:10111C00634B9C4207DC5B4664055F075B0217432D
:10112C001B0B620D02E000230027584A00211B0311
:10113C001C0B0B0D1B05234314055A4A3800134096
:10114C001C4353466400DB0764081C43210005B0B4
:10115C003CBC90469946A246AB46F0BD0122524299
:10116C0001231B1B382B00DCADE1002200230027E0
:10117C00DCE75B46334399465ED0002E00D18AE112
:10118C00300001F043F903000B3B1C2B00DD7BE12D
:10119C001D22D31A5A460100DA4008398E4013003A
:1011AC005F46334399468F403F4B00261B1A0093F2
:1011BC000023029352E7414653460B433B499B465F
:1011CC008C46009B634400935B46002B3BD102236F
:1011DC0000221E43022161E7434613439B4637D04E
:1011EC004346002B00D162E1404601F00FF90300A9
:1011FC000B3B1C2B00DD53E102004146083A9140A9
:10120C0088461D21CB1A5146D9400B0041460B4351
:10121C009B46534693401A00009B25499C466044CC
:10122C0003008C4663440093002137E70323B14647
:10123C0000900C26029311E700230093013304263F
:10124C00002702930AE70323C3461E43032125E725
:10125C0001331E430022012120E700239A468023FC
:10126C0000271B03094A61E7802349461B031942E7
:10127C0000D1E2E05946194200D0DEE00B431B03DB
:10128C0017001B0BA246014A50E7C046FF0700009F
:10129C0001FCFFFF0CBA0008FF030000FFFFFFFE7C
:1012AC00FE070000FFFF0F800DFCFFFF01F8FFFFA2
:1012BC00F3030000D94500D9CBE000D1C6E03C00D7
:1012CC0048460027009B013B00935B46160E1B0211
:1012DC001E431302984633041B0C9946310C0191A2
:1012EC00FEF7B8FF4A4642430B04210C0500194394
:1012FC008A4207D98919013D8E4203D88A4201D905
:10130C00851E8919881A0199FEF7A4FF09048C46D9
:10131C004A46210464464243090C030021438A4295
:10132C0004D98919013B8E4200D8F1E02D041D43EC
:10133C00AB464346891A4246280C12041D0C5B46E8
:10134C00140C22001B041B0C5A4303946B434443A0
:10135C00029568431B19150CEB189C4203D9802489
:10136C006402A44660441C0C15041B042D0C2018AC
:10137C005D19814277D373D00C1AA24A7D1BAF4200
:10138C00BF419446009B7F426344E01B1C00864295
:10139C0000D1DBE00199FEF75DFF4A4642430B04A6
:1013AC00290C070019438A4207D98919013F8E423B
:1013BC0003D88A4201D9871E8919881A0199FEF728
:1013CC0049FF09044A46894629044D464243090C03
:1013DC00030029438A4207D98919013B8E4203D85D
:1013EC008A4201D9831E89193F04891A3A00039F46
:1013FC001A43380013041B0C584381460298150CF1
:10140C006F43434345434846000C8446DB19634411
:10141C009F4203D9802040028446654448461F0CF5
:10142C0000041B04000C7D191818A94200D284E09A
:10143C0000D17FE001231A4357E680234A461B0361
:10144C0013431B031B0BAA466F4A6FE6BA4200D923
:10145C0035E74B46DC0758087B081C43FF0734E78D
:10146C000024AF4289D247444745A4415B466442BD
:10147C00A4196418013BA6421ED2A0426DD800D11B
:10148C00B6E0241A9B4678E703005A46283B9A405C
:10149C000027914688E6584600F0B8FF203072E6E7
:1014AC0003005246283B9A4093460022B4E650462D
:1014BC0000F0ACFF20309AE6A642E2D1B845DCD968
:1014CC00341A9B4659E71F2B65DC504C0099A446F7
:1014DC005C46614408008C4011008240D940501E8B
:1014EC0082410C4314435A46DA401300620709D078
:1014FC000F222240042A05D02200141D9442894157
:10150C0049425B181A0262D50122002300270DE61E
:10151C008A4200D80AE7831E891907E70F23134074
:10152C00042B00D1E6E5171D9742924153429B4490
:10153C00FA08E0E5002800D1D7E57118531EB14236
:10154C0027D3A94215D358D01A0073E7002B00DC1F
:10155C0004E6012300229B44CDE502234744474582
:10156C0089415B429C46494289190C19E344241A6F
:10157C0003E743465F0047459B41B8465B429E19D3
:10158C00023A8919A94200D054E7404500D051E7EE
:10159C00ABE51A00F6E71F215F4649420C1BE740FA
:1015AC00202B07D01A49009B8C46634418005B46DD
:1015BC0083401A43501E82413A43072700231740A9
:1015CC0009D00F21002311401400042995D12200C9
:1015DC005F075B021B0BD20817430022A6E5802392
:1015EC0059461B030B431B0317001B0B064A9DE5B7
:1015FC00BD42B2D89B460024BFE68045B9D31A0041
:10160C00C3E7C046FF030000FF0700001E040000F4
:10161C003E040000F0B55746DE464E464546E0B562
:10162C00834606000F03480087B092461D003F0B0F
:10163C00400DCC0F002800D16FE0DE4B984238D023
:10164C008023FF001B041F43730F3B430193DA4BB2
:10165C000027994600239B46F60081442B03690022
:10166C001B0B52469846490DED0F002900D185E021
:10167C00D04B994200D173E04346DA0080231B041F
:10168C0013435246CC48520F844613435246002013
:10169C006144D20089442100694000918C460121AB
:1016AC0049448A460F2F00D990E0C449BF00CF5956
:1016BC00BF465B463B43019300D06AE102230827F7
:1016CC00002681469B46C9E732005846019B61467D
:1016DC000091022800D175E0032800D1FEE1012819
:1016EC0000D02CE100230027002600253F032A0D03
:1016FC003F0BB34812053A4302401B051343009AB3
:10170C005B00D1075B080B433000190007B03CBCF1
:10171C0090469946A246AB46F0BD5B463B430193CF
:10172C0000D12FE1002F00D1A5E1380000F06EFEB2
:10173C0003000B3B1C2B00DD96E11D22D31A5A46ED
:10174C000100DA405E4608398F4013008E403B435F
:10175C0001939C4B00271B1A994600239B467DE75F
:10176C00414653460B4393498C46E144002B00D031
:10177C001AE102220220174300228CE7134300D106
:10178C000DE14346002B00D181E1404600F03EFEC6
:10179C0002000B3A1C2A00DD72E1010043460839B5
:1017AC008B4098461D239A1A5346D3401A00434641
:1017BC00134352468A404946081A82498946814455
:1017CC00002068E77B4B002700268EE7140C1204E0
:1017DC00120C1100370C3604350C794328008C465A
:1017EC002E0060436044834656432100300C8046F3
:1017FC005846794340440291844506D98846802155
:10180C0049028C46E044414602913604010C360CE8
:10181C0000048B4681191E0C1B041B0C0391190030
:10182C0079438C46280075436544A8465843050CFB
:10183C0045447743A94203D9802149028C46674429
:10184C00290C8C4639000004000C2D042D18614421
:10185C00AB4405915946049101990F043F0C080CB7
:10186C00390051434243904602008C46090C8B468A
:10187C0062437C4344445C44A04503D98021490223
:10188C0088464244210C884661460904090C8C4662
:10189C0039005943434370437E430F0CF61824041C
:1018AC00BE19644442448C46B34203D980235B0284
:1018BC0098464044029B61469846049B3704434437
:1018CC009B46AB45AD416B420D0405992D0C8C46E6
:1018DC007F196744FD18A8465D462D19A542A44101
:1018EC0093466442A446C344DC448F42BF419845AE
:1018FC009B4193459241A445A4415B427F421F43C7
:10190C00360C52426442BF192243BF186246381843
:10191C004302D20D039913436A020A43501E8241BB
:10192C006146ED0D2A434E023243D90100D4B3E097
:10193C000126500832400243DE0732435B08224C3A
:10194C005444002C62DD510709D00F2010400428AC
:10195C0005D0101D9042924152429B180200D901B1
:10196C0004D580241948E4000340544418488442A8
:10197C0000DD27E75E075B02D2081F0B63051643E9
:10198C005B0DB2E6002399460133042700269B46E3
:10199C0064E60323019781460C279B465EE60122F1
:1019AC0001201743002276E6032303201F434346FE
:1019BC0071E6C046FF07000001FCFFFF4CBA0008AF
:1019CC00FFFF0F800DFCFFFFFF030000FFFFFFFE7A
:1019DC00FE0700000023802700933F030026434BA3
:1019EC0083E6019B3200A446584670E6AC466EE690
:1019FC00802701993F0339422DD03B422BD11F4305
:101A0C003F033F0B00951600384B6EE601252D1B4E
:101A1C00382D00DD66E61F2D40DC35481C00504497
:101A2C00160082408440EE40501E824134431443E1
:101A3C00EB40620709D00F222240042A05D0220075
:101A4C00141D9442804140421B181A023ED50123BA
:101A5C000027002649E68027019B3F031F433F03D5
:101A6C003F0B0094214B40E603005A46283B9A401A
:101A7C00002601926DE6584600F0C8FC203057E66F
:101A8C0003005246283B9A401300002293E650462E
:101A9C0000F0BCFC20307BE6CA4650E71F201E003D
:101AAC004042041BE640202D03D0124C5444A3406A
:101ABC001A43501E8241324307260027164009D094
:101ACC000F200023104014000428B9D122005E0717
:101ADC005B021F0BD2081643002306E680273F0348
:101AEC001F433F033F0B1600004BFEE5FF070000B2
:101AFC001E0400003E040000F8B557464E4645460D
:101B0C00DE460C000903E0B5490A460F5F0031437D
:101B1C001E03DB0F760A9B46530F3343C84E6500FA
:101B2C00C000E40FD2006D0DA24681467F0D9C468D
:101B3C009046B74200D1B9E05B46012673409B4604
:101B4C00EE1BA34500D183E0002E63DD002F00D0F7
:101B5C00B1E06346134300D123E1731E002B00D088
:101B6C00BAE1861A6346B04280410125C91A404247
:101B7C00091A0B0200D447E149024B0A9846434626
:101B8C00002B00D189E1404600F040FC0300083BEB
:101B9C001F2B00DD7CE120223000D21A4146D040C0
:101BAC00994002009E400A439D4200DD6AE15D1BA4
:101BBC006B1C1F2B00DD94E1202110003500C91A8D
:101BCC008E40DA408840DD40711E8E4111000722A4
:101BDC002843002506433240002A09D00F23334006
:101BEC00042B05D0331DB342B641764289191E0031
:101BFC000B0200D43DE26A1C914B55056D0D9A42C7
:101C0C0000D119E18F4AF6080A40570752023743B0
:101C1C00120B9BE0002E00D0C5E06E1C7605760DF5
:101C2C00012E00DC48E16746861ACB1BB042BF414F
:101C3C007F42B8461F004346FF1A3B00B8461B02C2
:101C4C0000D55FE137439AD100220024002579E0CA
:101C5C00002E00DCFAE0002F00D18DE0784B9D4285
:101C6C0067D0802367461B041F43BC46382E00DC1C
:101C7C0052E1634613435A1E93411E18864280411B
:101C8C00404209180B0200D4BEE06D4B01359D4259
:101C9C0000D1D2E06B4A73080A4001210E401E436A
:101CAC005108D30707221E43324095E71E00164306
:101CBC0000D045E740E7624B9D423AD0802367460F
:101CCC001B041F43BC46382E00DDEBE01F2E00DC4E
:101CDC003AE133006746203BDF403B00202E05D025
:101CEC004027BF1B6646BE40324390464646721E96
:101CFC0096413343DAE0002B00D114E263461343E0
:101D0C0000D168E180234E07C008C9081B030643B5
:101D1C00194208D06046C008184204D1634601003D
:101D2C00D2085E071643F3009946C900720F444D62
:101D3C0011434B46DE08424B4F073743CA089D42BE
:101D4C0000D16EE012036D05120B6D0D0021120314
:101D5C00130B0A0D12051A433B4B2D0513402B4355
:101D6C005B00E4075B082343380019003CBC904639
:101D7C009946A246AB46F8BD6346134311D0731E79
:101D8C00002B00D007E18618864280416144404216
:101D9C00091801250B0237D502257BE73E00614669
:101DAC0091463500C5E75C46002D00D0E1E00B0004
:101DBC000343F3D0731C00D1ACE1214B9F4200D103
:101DCC003AE1F343382B00DD6FE11F2B00DD8CE192
:101DDC0020250E00ED1AAE40B0460600AA46DE40A5
:101DEC00454635432E005546D940A8406346451E0E
:101DFC00A8415B1A9C463043161AB2429241634684
:101E0C005242991A3D00B4E607223240002A00D013
:101E1C00E4E60B4BF6084F073743CA089D4200D047
:101E2C0090E73B00134300D1A6E180231B031A4328
:101E3C001203120B024D89E715000022002785E7DB
:101E4C00FF070000FFFF7FFFFFFF0F80002E00D079
:101E5C00C7E06B1C5E05760D012E00DCF0E0C84D72
:101E6C00AB4200D1B9E085180A0085428941624431
:101E7C00494251180722CE076D082E4349083240BB
:101E8C001D00A9E6BF49ED1A114007223240A3E616
:101E9C00320028388240002686E6300000F0B6FA80
:101EAC00203073E6634613435A1E9341C61AB04260
:101EBC0080414042091A5CE60E0067460643174310
:101ECC00002D5ED1002E00D0F3E0002F00D11EE1DA
:101EDC005C46614691462CE7A94FBE427BD01E0062
:101EEC00F1E610001F3DE840202B03D04021CB1A17
:101EFC009A401643731E9E4107220643324000212E
:101F0C00002583E7161A6346B2428041591A4042B3
:101F1C000B1A98465C4632E61F2E00DDABE02027FC
:101F2C00BB1B9A4663465746BB40994613004F4627
:101F3C00F3401F433B005746BA40571EBA41134368
:101F4C006246F240891898E62027BB1B9A466346E6
:101F5C005746BB40994613004F46F3401F433B0086
:101F6C005746BA40571EBA4113436246F240891A8B
:101F7C009CE7834B9F425FD080252D0473422943FD
:101F8C0020E7002E0CD1002F00D1D0E05C4661463A
:101F9C0091467B4DCDE67A4FBE421CD01E0065E6C5
:101FAC00002F18D0C0084E0706438020C908000334
:101FBC00014208D06346DC08044204D12100DA4611
:101FCC00D2085E071643F300994601245346C90014
:101FDC00720F11431C406A4DABE61D000022002716
:101FEC00B4E6002D59D10B00034300D1D6E6731C87
:101FFC0000D1B2E0624B9F421ED0F343382B6FDC12
:10200C001F2B00DD97E020250E00ED1AAE40B046E8
:10201C000600AA46DE40454635432E005546A840EC
:10202C00D940451EA8418C440643B61896429241AD
:10203C00514261443D0025E63D006146914678E6FB
:10204C000B000343002D00D055E6002BF5D0634662
:10205C00134300D16DE686188642804161444042AC
:10206C00091800220B0200D4D0E6464B013519406A
:10207C00B2E5B1465DE633006746203BDF403B00EE
:10208C00202E05D04027BF1B6646BE4032439046EB
:10209C004646721E96413343EFE5394B9F42CBD0F7
:1020AC0080252D0473422943A8E70843411E88412B
:1020BC00A2E6002F00D13CE66346861ACF1AB04246
:1020CC009B415B42FB1A98461B024ED5161A63467F
:1020DC00B2429241591A5242891A5C4600227BE55F
:1020EC0001430E00711E8E419FE71D000E00203D26
:1020FC00EE40B046202B04D04025EB1A9940084303
:10210C00814648464346411E8841184374E60022E6
:10211C00002417E6161A6346B2429241591A5242EB
:10212C00891A3D0025E561469146154D01E6802250
:10213C000024120379E61D000E00203DEE40B0464F
:10214C00202B04D04025EB1A9940084381464E467B
:10215C004346711E8E411E4367E7861896429B418B
:10216C0061445B42C9183D008CE547463743CED0ED
:10217C0007224146324049E600273A00E6E5C046D0
:10218C00FF070000FFFF7FFF70B500282DD0C3179D
:10219C00C5185D40C40F280000F038F9154B1B1A08
:1021AC005B055B0D0A2815DD0B38854000222D03DD
:1021BC002D0B002110002D030A0D2D0B12052A43A7
:1021CC000D4D1B052A4013435B00E4075B082343BA
:1021DC00190070BD02002900153291400A000B2134
:1021EC00081AC5402D032D0BE3E70024002300251E
:1021FC000022DEE71E040000FFFF0F8010B5041E56
:10220C0025D000F003F9144B1B1A5B055B0D0A2853
:10221C0012DD0B38844000222403240B0021100013
:10222C0024030A0D240B120522430C4C1B052240DF
:10223C0013435B00590810BD020021001532914078
:10224C000A000B21081AC4402403240BE6E70023E0
:10225C0000240022E2E7C0461E040000FFFF0F80AE
:10226C004100090E4B1C70B5DBB24602750AC40F57
:10227C00012B14DDE0239B006D07360BCB180021DE
:10228C000A0D280012051C4D32435B052A405B08E1
:10229C0013435B00E4075B082343190070BD00295E
:1022AC0014D1002D1ED0280000F0B0F80A281CDC38
:1022BC000B232A001B1ADA40030015339D400F4BE9
:1022CC0012031B1A5B05160B5B0DD8E7002D06D00D
:1022DC00320B802636036D071643094BCFE7084BAC
:1022EC000026CCE700230026C9E703002A000B3B9D
:1022FC009A400025E3E7C046FFFF0F8089030000EA
:10230C00FF070000F0B54C00640D0B03621C5B0A68
:10231C00460F5205C90F1E43C500520D012A29DD77
:10232C00374BE718FE2F1CDC002F3BDD8001431ED2
:10233C0098410722F3006D0F03432B431A40002AE8
:10234C0004D00F221A40042A00D004338022D20475
:10235C001A4024D00137FAB2FF2F02D09B01580A41
:10236C0001E0FF2200204002D205400AC9071043B9
:10237C000843F0BD3543002C04D1002D0AD10022B6
:10238C000020F0E7002DECD08020C0033043FF226A
:10239C00E9E7002400235B02580AE2B2E3E7DB081A
:1023AC003C00F8E73B001733F3DB80231B0433437B
:1023BC001E26F61B1F2E14DD02225242D71B1A00BA
:1023CC00FA401700202E04D00E4A94466444A340D1
:1023DC001D432B005D1EAB4107223B431A400027D7
:1023EC00ADE7094A2800A218954093406C1EA54100
:1023FC00F04007222B4303431A4000279FE7C046B7
:10240C0080FCFFFFA2FCFFFF82FCFFFF1C210123CD
:10241C001B04984201D3000C10391B0A984201D3BB
:10242C00000A08391B09984201D30009043902A299
:10243C00105C40187047C046040302020101010100
:10244C00000000000000000070B50D4E0D4DAD1BDE
:10245C00AD1006D00024A300F35801349847A542D0
:10246C00F9D109F045FC084E084DAD1BAD1006D056
:10247C000024A300F35801349847A542F9D170BD4C
:10248C0014BD000814BD000814BD000818BD0008D8
:10249C00F0B5830746D0541E002A42D0CEB20200BB
:1024AC00032502E01A00013C3BD3531C16702B424F
:1024BC00F8D1032C2DD9FF220A40150215432A040A
:1024CC0015430F2C16D92700103F3F093E01B44687
:1024DC001E001A0010366644156055609560D56074
:1024EC001032B242F8D10F2201373F01DB191440F0
:1024FC00032C0ED9261FB608B700BC461A001F1DA8
:10250C00674420C2BA42FCD103220136B6009B19A3
:10251C001440002C05D0C9B21C19197001339C420F
:10252C00FBD1F0BD14000300C3E7C04680B500AF7B
:10253C00074B1A7801218A431A70064B012252422A
:10254C001A80054B00221A80C046BD4680BDC0468D
:10255C00FC000020F80000200001002080B582B0B3
:10256C0000AF0200FB1D1A703B4B1B78012213407D
:10257C00DBB2002B00D06AE0384B1B885A1C91B29E
:10258C00364A11801900364BFA1D12785A54334BC7
:10259C001B88052B29D9FB1D1B780D2B0BD12F4B21
:1025AC001A88304B1B889A4205D12B4B1A78012183
:1025BC000A431A704CE0294B1A882A4B1B889A4202
:1025CC0007D9264B00221A80264B012252421A8030
:1025DC003EE0224B1B88642B3AD9204B00221A80F8
:1025EC00204B012252421A8032E01C4B1B88052BD7
:1025FC0015D11B4BDB789BB21B029AB2184B1B7983
:10260C009BB2D3189BB207339AB2164B1A80154B58
:10261C001B88642B1CD9114B00221A8018E00F4B1D
:10262C001B88022B07D1FB1D1B78162B10D00B4BD4
:10263C0000221A800CE0094B1B88012B08D1FB1DD2
:10264C001B78162B04D0054B00221A8000E0C046E4
:10265C00BD4602B080BDC046FC0000200001002039
:10266C0004010020F8000020B0B586B000AF7860FF
:10267C001723FB1800221A707B681B78242B01D0BF
:10268C000023C0E27B6801331B78472B01D0002369
:10269C00B9E27B6802331B78502B01D00023B2E2E5
:1026AC007B6803331B78522B01D00023ABE27B6891
:1026BC0004331B784D2B01D00023A4E27B68053337
:1026CC001B78432B01D000239DE21623FB1800221C
:1026DC001A701623FB181B787A68D3181B782A2BD0
:1026EC0021D01623FB181B787A68D3181B782C2B57
:1026FC0012D117203B181B783A18591C117019006D
:10270C000823FB181622BA1812785A543B181B7857
:10271C000B2B01D9002376E216217B181A787B1833
:10272C0001321A70D5E7C0461723FB181B780B2B08
:10273C0006D01723FB181B780C2B01D0002362E268
:10274C001623FB1800221A700EE016203B181B787B
:10275C007A68D2183B181B781178D74AD1543B1899
:10276C001A783B1801321A700823FB181B781622B2
:10277C00BA1812789A42E8D31523FB1800221A7063
:10278C000BE015217B181B78CB4AD31800229A71C9
:10279C007B181A787B1801321A701523FB181B78DA
:1027AC00092BEED90823FB181A781623FB180132D3
:1027BC001A701523FB1800221A7016E016203B180D
:1027CC001B787A68D21815243B191B781178BA4AF1
:1027DC00D3180A1C9A713B181A783B1801321A70DC
:1027EC003B191A783B1901321A700823FB185B78D5
:1027FC001622BA1812789A42E0D30823FB185A789A
:10280C001623FB1801321A701523FB1800221A70BC
:10281C0012E016217B181B787A68D3181A78A64B0D
:10282C001A747B181A787B1801321A7015217B18D0
:10283C001A787B1801321A700823FB189B78162221
:10284C00BA1812789A42E4D30823FB189A78162304
:10285C00FB1801321A701523FB1800221A7016E0AF
:10286C0016203B181B787A68D21815243B191B7854
:10287C001178914AD3180A1C5A743B181A783B18D1
:10288C0001321A703B191A783B1901321A7008235D
:10289C00FB18DB781622BA1812789A42E0D3082378
:1028AC00FB18DA781623FB1801321A701523FB1863
:1028BC0000221A7012E016217B181B787A68D31844
:1028CC001A787D4B9A767B181A787B1801321A701D
:1028DC0015217B181A787B1801321A700823FB1803
:1028EC001B791622BA1812789A42E4D30823FB18E3
:1028FC001A791623FB1801321A701523FB180022C3
:10290C001A7016E016203B181B787A68D21815241A
:10291C003B191B781178684AD3180A1CDA763B18D5
:10292C001A783B1801321A703B191A783B1901328C
:10293C001A700823FB185B791622BA1812789A427F
:10294C00E0D30823FB185A791623FB1801321A70AE
:10295C001523FB1800221A7013E016203B181B7865
:10296C007A68D3181978544B252299543B181A7845
:10297C003B1801321A7015217B181A787B1801321A
:10298C001A700823FB189B791622BA1812789A42EF
:10299C00E3D30823FB189A791623FB1801321A701B
:1029AC001523FB1800221A7018E016243B191B780B
:1029BC007A68D21815257B191B7810783E4A262187
:1029CC00D3185B18021C1A703B191A783B19013288
:1029DC001A707B191A787B1901321A700823FB18AC
:1029EC00DB791622BA1812789A42DED30823FB1828
:1029FC00DA791623FB1801321A701523FB18002202
:102A0C001A7018E016243B191B787A68D218152511
:102A1C007B191B781078284A2B21D3185B18021CC1
:102A2C001A703B191A783B1901321A707B191A78F3
:102A3C007B1901321A700823FB181B7A1622BA185C
:102A4C0012789A42DED30823FB181A7A1623FB1845
:102A5C0001321A701523FB1800221A7018E0162484
:102A6C003B191B787A68D21815257B191B781078BE
:102A7C00114A3021D3185B18021C1A703B191A78B2
:102A8C003B1901321A707B191A787B1901321A70B2
:102A9C000823FB185B7A1622BA1812789A42DED3F6
:102AAC000823FB185A7A1623FB1801321A701523C7
:102ABC00FB1800221A701AE06801002016243B193A
:102ACC001B787A68D21815257B191B781078504A18
:102ADC003621D3185B18021C1A703B191A783B1953
:102AEC0001321A707B191A787B1901321A7008237B
:102AFC00FB189B7A1622BA1812789A42DED3172347
:102B0C00FB181B780C2B52D10823FB189A7A16232E
:102B1C00FB1801321A701523FB1800221A7013E0EF
:102B2C0016203B181B787A68D3181978384B3B223F
:102B3C0099543B181A783B1801321A7015217B18DE
:102B4C001A787B1801321A700823FB18DB7A1622CC
:102B5C00BA1812789A42E3D30823FB18DA7A1623B0
:102B6C00FB1801321A701523FB1800221A70162359
:102B7C00FB181B787A68D3181B782A2B3FD01620A9
:102B8C003B181B787A68D21815243B191B781178DE
:102B9C001F4AD3180A1C9A713B181A783B18013239
:102BAC001A703B191A783B1901321A70DFE70823A7
:102BBC00FB189A7A1623FB1801321A701523FB188E
:102BCC0000221A701623FB181B787A68D3181B780E
:102BDC002A2B16D016203B181B787A68D318197834
:102BEC000B4B3B2299543B181A783B1801321A7044
:102BFC0015217B181A787B1801321A70E2E7C0464F
:102C0C0000E0C04601231800BD4606B0B0BDC0466A
:102C1C006801002080B582B000AF0200FB1D1A7065
:102C2C004B4B1B7801221340DBB2002B00D085E00C
:102C3C00474B1B7802221340DBB2002B00D17FE004
:102C4C00444B1B68591C434A1160434AF91D0978CF
:102C5C00D154404B1B68032B23D93E4B1A683F4B76
:102C6C001B689A4205D13A4B1A7801210A431A7013
:102C7C006BE0384B1A68394B1B689A4206D9354BB6
:102C8C0000221A60354BFF221A605EE0314B1B6844
:102C9C00322B5AD92F4B00221A60304BFF221A606C
:102CAC0053E02C4B1B68032B23D12D4B1B68032BA0
:102CBC0002D0042B0ED048E0FB1D1B7805331A0004
:102CCC00264B1A60254B1B68322B3BD9214B00221B
:102CDC001A6037E0FB1D1B7805331A001F4B1A6076
:102CEC001E4B1B68322B2FD91A4B00221A60C04680
:102CFC002AE0184B1B68022B12D1FB1D1A78184BBB
:102D0C001B689A4203D0134B00221A601DE0144B2F
:102D1C001B68102B19D1114B08221A60C04614E005
:102D2C000C4B1B68012B10D1FB1D1A780D4B1B682B
:102D3C009A420AD0074B00221A6006E0C04604E013
:102D4C00C04602E0C04600E0C046BD4602B080BDB1
:102D5C00200200202C020020EC0100203002002078
:102D6C0024020020E401002090B585B000AF0200E1
:102D7C00BB1D1A807B1D0A1C1A700C243B190122E6
:102D8C0052421A80244B03221A60244B0122102138
:102D9C00180007F03CFB012004F0D0FE204B1B6810
:102DAC00DAB2204B1A701F4B03225A70BB1D1B88C2
:102DBC001B0A9BB2DAB21B4B9A70BB1D1B88DAB292
:102DCC00184BDA70174B00221A71164B7A1D1278B9
:102DDC005A71144B0621180001F040FE0300FB60F1
:102DEC003B195A780F4B9A713B191A780D4BDA71C3
:102DFC00FA239B000B490C48082206F02FF80120FF
:102E0C0004F09CFE054B00221021180007F0FFFA7D
:102E1C00C046BD4605B090BD240200200008004805
:102E2C00E4010020AC010020E804002080B500AFD4
:102E3C00154B1A7801218A431A70134B1A78022108
:102E4C000A431A7000221E21EC2001F053FA031ED3
:102E5C0001D1002314E00022FE21802001F04AFA67
:102E6C00031E01D100230BE001F09AF9031E01D1DE
:102E7C00002305E0044B1A7801210A431A70012340
:102E8C001800BD4680BDC04648020020F0B5D646AD
:102E9C004F464646C0B5D8B000AFF64B1B681A007B
:102EAC00F54B5B891B02D31A962252000824082189
:102EBC008C4608218846B844C4446444A418236052
:102ECC0008230824A44608218846B844C444634413
:102EDC009B181B68A824082208218C4608218846C8
:102EEC00B844C444624412191360DB179846AC22F0
:102EFC0008239C460823994608239A46BA44D14491
:102F0C00CC44624443461360DB4B9B893B600023FB
:102F1C007B603A687B68082108208446082080463C
:102F2C00B844C4446144091908684968FDF798F924
:102F3C0003000C006202DD0D1543E6152B00FA228E
:102F4C00D2009446634494225200082108208446FF
:102F5C0008208046B844C444614489180B60082397
:102F6C0008218C4608218846B844C44463449B1805
:102F7C001A68C24B9A4201DD00F066FC96225200A0
:102F8C00082308218C4608218846B844C44463446D
:102F9C009B181B68A02108200824A4460824A046DE
:102FAC00B844C444604440180360DB17A4200824D0
:102FBC00A4460824A0460824A146B944C844C444E5
:102FCC006044036008230820844608208046B844E7
:102FDC00C44463449B181B68982208200824A44608
:102FEC000824A046B844C444604480180360DB172E
:102FFC009C200824A4460824A0460824A146B944D1
:10300C00C844C44460440360082308208446082054
:10301C008046B844C44463449B181A685B68082013
:10302C0084460820804608208146B944C844C444DC
:10303C00614408684968FDF713F903000C00190096
:10304C0022000B001400DB1864415B185441621021
:10305C00A02149000820844608208046082081468B
:10306C00B944C844C44461440A60E317A222520024
:10307C0008218C460821884608218946B944C84451
:10308C00C4446244136094235B00082208218C46DC
:10309C0008218846B844C4446244D218136890226C
:1030AC0008210820844608208046B844C444614462
:1030BC0089180B60DB179421082084460820804671
:1030CC0008208146B944C844C44461440B606C4B2D
:1030DC000124644208218C4608218846082189462F
:1030EC00B944C844C444624411685268C918624166
:1030FC0039617A613B697C69180F2501F426082235
:10310C0008218C4608218846B844C444624492196C
:10311C001560082208218C4608218846B844C4440E
:10312C006244921915680543082208218C4608212F
:10313C008846B844C4446244921915601B01F020BF
:10314C00082208218C4608218846B844C4446244AD
:10315C001218136008230822944608229046B8449B
:10316C00C44463441A181368546839697A695B1A41
:10317C009441980FA500EC26082208218C460821C2
:10318C008846B844C4446244921915600822082148
:10319C008C4608218846B844C444624495192D686D
:1031AC000543082208218C4608218846B844C444AB
:1031BC006244901905609B00E820082208218C4687
:1031CC0008218846B844C444624414182360082378
:1031DC009C460823984608239946B944C844C444DD
:1031EC0060440368446839697A695B185441180073
:1031FC00210094235B000822944608229046082262
:10320C009146B944C844C44463441B6888220824CA
:10321C000825AC460825A846B844C4446444A41800
:10322C002360DB178C240825AC460825A846082506
:10323C00A946B944C844C44464442360104B0124D7
:10324C0064420825AC460825A8460825A946B94479
:10325C00C844C444624415685668ED1866412B0096
:10326C0034001A002300FCF7FBFF03000C001900CC
:10327C00220007E0380200205C020020CF0700008B
:10328C0030F8FFFF002A03DA0F230024C91862412B
:10329C0013070809E02408250826B4460826B0467A
:1032AC00B844C44465442D19286008200825AC4650
:1032BC000825A846B844C444604400190068184363
:1032CC0008230825AC460825A846B844C4446344E2
:1032DC001B1918601311E42208218C46082188461A
:1032EC0008218946B944C844C44462441360082385
:1032FC000822944608229046B844C44463441B19DF
:10330C005C681B689C22520008218C460821884668
:10331C0008218946B944C844C444624413605460CB
:10332C0094235B00082208218C4608218846B84467
:10333C00C4446244D21813688022082108208446B1
:10334C0008208046B844C444614489180B60DB17DC
:10335C008421082084460820804608208146B944F0
:10336C00C844C44461440B60F64B012464420821F8
:10337C008C460821884608218946B944C844C4446F
:10338C00624411685268C918624139617A613B69BB
:10339C007C69580FE500DC26082208218C460821A0
:1033AC008846B844C4446244921915600822082126
:1033BC008C4608218846B844C44462449219156866
:1033CC000543082208218C4608218846B844C44489
:1033DC00624492191560DB00D820082208218C4623
:1033EC0008218846B844C444624412181360082368
:1033FC000822944608229046B844C44463441A18E0
:10340C001368546839697A695B1A9441980FA5005E
:10341C00D426082208218C4608218846B844C44486
:10342C00624492191560082208218C4608218846AE
:10343C00B844C444624495192D68054308220821F8
:10344C008C4608218846B844C444624490190560EF
:10345C009B00D020082208218C4608218846B844BD
:10346C00C44462441418236008239C4608239846DD
:10347C0008239946B944C844C4446044036844686A
:10348C0039697A695B1854411800210094235B0058
:10349C00082294460822904608229146B944C84412
:1034AC00C44463441B6880220824A4460824A04614
:1034BC00B844C44462441360DB1784220824A44635
:1034CC000824A046B844C444624413609D4B0124B4
:1034DC00644280220825AC460825A846B844C4445A
:1034EC00624415685668ED1866412B0034001A00CA
:1034FC002300FCF7B5FE03000C0019002200002A83
:10350C0003DA0F230024C918624113070809C824E1
:10351C0008250826B4460826B046B844C444654479
:10352C002D19286008200825AC460825A846B84463
:10353C00C444604400190068184308230825AC46AD
:10354C000825A846B844C44463441B1918601311D9
:10355C00CC2208218C460821884608218946B9448A
:10356C00C844C444624413600823082294460822C9
:10357C009046B844C44463441B195C681B68982289
:10358C00520008218C460821884608218946B944F6
:10359C00C844C44462441360546094235B00082202
:1035AC0094460822904608229146B944C844C44423
:1035BC0063441A68644B9A4200DBE8E19426760077
:1035CC00FE6008230822944608229046B844C4445E
:1035DC0063449B191B68802208218C46BC446244BE
:1035EC001360DB17842208218C46BC4462441360B0
:1035FC00564B0024802208218C46BC44624411683E
:10360C005268C91862410B001400180F844625013A
:10361C00C4200826B0460826B1460826B246BA444D
:10362C00D144C84440440560C42508200826B0464F
:10363C000826B146B944C844404440190568604660
:10364C000543C4200826B4460826B0460826B146D1
:10365C00B944C844C444604405601B01C02008241C
:10366C000825AC460825A846B844C444644424182C
:10367C00236008230824A4460824A046B844C44464
:10368C0063441B185C681B685B18544118002100CC
:10369C00FE6808230822944608229046B844C44485
:1036AC0063449B191B688022BA181360DB178422B1
:1036BC00BA181360254B00248022BA181568566876
:1036CC00ED1866412B0034001A002300FCF7C8FDEE
:1036DC0003000C00190022009C2040000823082441
:1036EC00A4460824A046B844C44463441B185C6830
:1036FC001B685B185441082208218C460821884617
:10370C00B844C44462441218136054609426760082
:10371C00FE6008230822944608229046B844C4440C
:10372C0063449B191B68BB67DB17FB67074B0024C3
:10373C00B96FFA6FC91862410B001400580F844618
:10374C0006E0C04630F8FFFF24FAFFFFDC0500005E
:10375C00E500BC200826B0460826B1460826B2462D
:10376C00BA44D144C84440440560BC25082008260E
:10377C00B0460826B146B944C844404440190568CF
:10378C0060460543BC200826B4460826B0460826E9
:10379C00B146B944C844C44460440560DB00B82059
:1037AC0008240825AC460825A846B844C4446444FB
:1037BC002418236008230824A4460824A046B844EF
:1037CC00C44463441B185C681B685B1854411800A4
:1037DC002100FE6808230822944608229046B8442B
:1037EC00C44463449B191B683B67DB177B67154B11
:1037FC0000243D6F7E6FED1866412B0034001A00DB
:10380C002300FCF72DFD03000C001900220098206A
:10381C00400008230824A4460824A046B844C44405
:10382C0063441B185C681B685B1854410822082110
:10383C008C4608218846B844C4446244121813606C
:10384C005460A4E0DC0500009622520008230821F5
:10385C008C4608218846B844C44463449B181B68B2
:10386C00BB66DB17FB66082308218C4608218846BB
:10387C00B844C44463449B181B683B66DB177B66E7
:10388C003A6E7B6EB86EF96EFCF7EAFC03000C0026
:10389C003B607C603B687C689A0F9446A500B4261C
:1038AC0008220821884608218946B944C844424464
:1038BC009219156008220821884608218946B944C6
:1038CC00C844424495192D686246154308220821C4
:1038DC008C4608218846B844C44462449219156049
:1038EC009B00B02208240825AC4608218846B84421
:1038FC00C4446444A418236008230824A446082163
:10390C008846B844C44463449B185C681B68396897
:10391C007A685B185441A211A02149000820844602
:10392C000820804608208146B944C844C4446144F8
:10393C000A60E317A222520008218C46082188460F
:10394C0008218946B944C844C44462441360002326
:10395C0000249C22520008218C460821884608210C
:10396C008946B944C844C44462441360546000237B
:10397C0000249822520008218C46082188460821F0
:10398C008946B944C844C444624413605460F24B41
:10399C009B88BB650023FB65BB6DFC6D1A00D20BCD
:1039AC007A655B043B65EC4B1B89BB640023FB64B1
:1039BC009626760008230822944608229046B8449E
:1039CC00C44463449B191B683B64DB177B643A6CEF
:1039DC007B6CB86CF96CFCF743FC03000C00A20682
:1039EC009046990984204000082508229446082214
:1039FC009146B944CC4465442D182960082108250A
:103A0C00AC4608229146B944CC4461440918096873
:103A1C0042461143020008200825AC460825A8465A
:103A2C00B844C444604480180160A3118621490045
:103A3C00082084460820804608208146B944C844A2
:103A4C00C44461440B603B6D7C6D08218C4608219D
:103A5C00884608218946B944C844C4446244116864
:103A6C0052685B18544190256D00082208218C4641
:103A7C0008218846B844C444624452191360546007
:103A8C0008230822944608229046B844C444634450
:103A9C005B1919685A689C235B000820844608202F
:103AAC00804608208146B944C844C44463445C68D9
:103ABC001B68C91AA2410B001400082208218C466D
:103ACC0008218846B844C4446244521913605460B7
:103ADC00A14B5B88BB630023FB63BB6BFC6B1A00C5
:103AEC00120C7A631B043B639B4BDB88BB62002389
:103AFC00FB6208230822944608229046B844C4442A
:103B0C0063449B191B683B62DB177B623A6A7B6AD6
:103B1C00B86AF96AFCF7A4FB03000C006206D90929
:103B2C00842040000826B4460826B046B844C44455
:103B3C0060440160842149000820844608208046A6
:103B4C00B844C444614409681143842252000820DB
:103B5C00844608208046B844C44462441160E31192
:103B6C008622520008218C4608218846B844C44459
:103B7C00624413603B6B7C6B8422520008218C46A0
:103B8C0008218846B844C4446244116852685B18E2
:103B9C0054418C204000082208218C46082188467C
:103BAC00B844C444624412181360546008230822B9
:103BBC00944608229046B844C44463441B181968C0
:103BCC005A6898235B000824A4460824A0460824BD
:103BDC00A146B944C844C44463445C681B68C91A10
:103BEC00A2410B001400082208218C4608218846AB
:103BFC00B844C4446244121813605460574B1B6899
:103C0C00BB610023FB6108230822944608229046DE
:103C1C00B844C44463441B181A685B68B869F969F2
:103C2C00FCF71EFB03000C00E2029046590DF82035
:103C3C0008260822944608229146B944CC4466448E
:103C4C003618316008210826B44608229146B9443A
:103C5C00CC4461440918096842461143020008200B
:103C6C000826B4460826B046B844C44460448018BC
:103C7C0001606315FC21082084460820804608203A
:103C8C008146B944C844C44461440B6008230821EC
:103C9C008C4608218846B844C44463445B195C686C
:103CAC001B6808218C460821884608218946B9449E
:103CBC00C844C444624411685268C91AA2410B003A
:103CCC0014006204D90B0A4388256D0008210820D2
:103CDC00844608208046B844C444614449190A60AB
:103CEC00E3138A22520008218C46082188460821B9
:103CFC008946B944C844C4446244136094235B00AD
:103D0C00082294460822904608229146B944C84499
:103D1C00C44463441868FCF7D5FD041CA0235B0065
:103D2C00082294460822904608229146B944C84479
:103D3C00C444634418685968FCF7BCFA031C191C8A
:103D4C00201CFCF7FBFB031C0549181CFCF7E4FAD0
:103D5C00031C1A1C06E0C0465C020020580200201E
:103D6C000000C8420F4B1A60082308229446082210
:103D7C009046B844C44463445B1918685968FCF70E
:103D8C0099FA031C0849181CFCF7C6FA031C1A1CE8
:103D9C00064B1A60C046BD4658B01CBC90469946AE
:103DAC00A246F0BD400200200000C84234020020B0
:103DBC0080B584B000AF0200FB1D1A700F203A18BA
:103DCC00FB1D1B78DB1813703B183A181278502126
:103DDC000A431A703B181B7800221900EC2000F0E3
:103DEC0089FA031E01D1002353E0142003F0A6FE30
:103DFC0003220021EC2000F07DFA031E01D10023E8
:103E0C0047E0264B1B781B04244A527812022349A4
:103E1C00897852189A18224B1A600F203A18FB1DF9
:103E2C001B78DB1813703B183A18127840210A43A0
:103E3C001A703B181B7800221900EC2000F05AFA7B
:103E4C00031E01D1002324E0142003F077FE03228B
:103E5C000021EC2000F04EFA031E01D1002318E0E3
:103E6C000E4B1B781B040D4A527812020B498978B1
:103E7C0052189A180B4B1A600A4B1B68002B03D074
:103E8C00074B1B68002B01D1002302E0FEF7FEFF5D
:103E9C0001231800BD4604B080BDC0464C02002072
:103EAC00380200205802002090B58BB000AF5E4B5A
:103EBC007B6280231B043B625C4BFB615C4B1B787D
:103ECC0002221340DBB2002B39D00022E5218020E6
:103EDC0000F010FA031E01D10023A0E03B00802269
:103EEC0052001A603B0000225A603B0001229A608B
:103EFC003B00504A1900100006F0F0F8012003F0C6
:103F0C001DFEC04680235B004A4A1900100006F0D3
:103F1C0061FA031EF6D03B00802252001A603B006F
:103F2C0001225A603B0001229A603B000022DA60B9
:103F3C003B00404A1900100006F0D0F80BE00022BC
:103F4C00F521802000F0D6F9031E01D1002366E094
:103F5C00C82003F0F3FD0321802000F081F9031E3B
:103F6C0001D100235BE0344B1A78344B5A70324B3E
:103F7C005A78324B1A701723FB182F4A92781A7002
:103F8C002E4B1B881B02BB6117E0BB693A6A1340BE
:103F9C000AD0BA697B6A5340FA691A40FB69DB4361
:103FAC00B9690B401343BB613B6A5B083B62FB691D
:103FBC005B08FB617B6A5B087B623B6A802BE4D10C
:103FCC001723FB181B78BA699A4227D11B4B1B8805
:103FDC001800FCF7C1FC031C181CFEF741F9002269
:103FEC00174BFDF717FB03000C00180021000022F3
:103FFC00144BFDF70DF803000C00180021000022F3
:10400C00114BFDF779FD03000C0018002100FEF7A1
:10401C0079F9021C0D4B1A60012300E000231800F3
:10402C00BD460BB090BDC046008098000080FF00DC
:10403C0048020020000400484C0200203C020020F2
:10404C0000405F400000F040000018404402002097
:10405C0080B584B000AF78600A00FB1C1A700C238A
:10406C00FB1800221A800F23FB1800221A707DE027
:10407C000F217B181B785B007A68D3181B881B0AEE
:10408C009AB20B203B181A707B181B785B007A686D
:10409C00D3181A880A23FB181A703B181B7899B28C
:1040AC000C22BB18BA1812884A401A800E23FB182F
:1040BC0008221A701DE00C23FB1800229B5E002BBB
:1040CC000BDA0C217B181B885B001BB2C0229201FF
:1040DC0053401AB27B181A8005E00C23FA18FB180F
:1040EC001B88DB1813800E217B181A787B18013A79
:1040FC001A700E23FB181B78002BDCD10A23FB183B
:10410C001B7899B20C22BB18BA1812884A401A8034
:10411C000E23FB1808221A701DE00C23FB1800223A
:10412C009B5E002B0BDA0C217B181B885B001BB2EF
:10413C00C022920153401AB27B181A8005E00C235E
:10414C00FA18FB181B88DB1813800E217B181A78C1
:10415C007B18013A1A700E23FB181B78002BDCD14C
:10416C000F217B181A787B1801321A700F23FB1859
:10417C001B78072B00D87BE70C217B187A18128848
:10418C00120B1A80FB1C1B789BB27A1812889A426D
:10419C0001D1012300E000231800BD4604B080BD0E
:1041AC0080B582B000AFFB1D00221A7022E0FB1D0F
:1041BC001B785033DBB2DB18DBB202221900EC2087
:1041CC0000F098F8031E01D1002340E0224B1B782D
:1041DC009BB21B0299B2204B5B789BB2FA1D1278F2
:1041EC00CB1899B21D4B5200D152FB1D1A78FB1DF6
:1041FC0001321A70FB1D1B78062BD8D9174B0022E5
:10420C00DA81164B1B881B0A9AB2BB1D1A70BB1D98
:10421C00BA1D127812091A703B1D104A12881A80A6
:10422C000E4B1B881B051B0D9AB20C4B1A80BB1D29
:10423C001A780A4B11001800FFF70AFF031E01D170
:10424C00002304E0054B3A1D12881A800123180044
:10425C00BD4602B080BDC0464C0200205C0200206E
:10426C0090B585B000AF0200FB1D1A70BB1D0A1C77
:10427C001A7000F061F9FB1D1B7801221343DBB2AD
:10428C00180000F04FFA00F0ABF9031E01D0002328
:10429C002AE00F23FB1800221A700EE00F22BB1825
:1042AC001B78BA18591C11701C0000F091FA03000D
:1042BC001A000F4B1A5500F0E9F9BB1DBA1D127804
:1042CC00013A1A70BB1D1B78002BE7D10F23FB188A
:1042DC001C7800F07DFA03001A00054B1A5500F00B
:1042EC0001FA00F053F901231800BD4605B090BD4A
:1042FC004C02002090B585B000AF040008001100FE
:10430C00FB1D221C1A70BB1D021C1A707B1D0A1C83
:10431C001A7000F011F9FB1D1B78180000F002FA5E
:10432C0000F05EF9031E01D000234DE0BB1D1B788D
:10433C00180000F0F7F900F053F9031E01D0002328
:10434C0042E000F023F97B1D1B78002B01D10123E7
:10435C003AE000F0F1F8FB1D1B7801221343DBB2AD
:10436C00180000F0DFF900F03BF9031E01D0002328
:10437C002AE00F23FB1800221A700EE00F22BB1844
:10438C001B78BA18591C11701C0000F021FA03009C
:10439C001A000F4B1A5500F079F97B1D7A1D127813
:1043AC00013A1A707B1D1B78002BE7D10F23FB18E9
:1043BC001C7800F00DFA03001A00054B1A5500F09A
:1043CC0091F900F0E3F801231800BD4605B090BD4B
:1043DC004C02002080B582B000AF0200FB1D1A70A9
:1043EC00194B1B7801221340DBB2002B28D1174B41
:1043FC001B785A1CD1B2154A11701900144BFA1DB6
:10440C0012785A54114B1B78012B07D1104B1B7887
:10441C00242B16D00D4B00221A7012E0FB1D1B78BA
:10442C000A2B05D1084B1A7801210A431A7008E0AF
:10443C00064B1B78632B04D9044B00221A7000E046
:10444C00C046BD4602B080BDD40200206C020020E4
:10445C007002002090B583B000AFBB1D1F4A52788C
:10446C001A70FB1D02221A70FB1D1B781B4AD35CB1
:10447C002A2B14D0FB1D1B78632B01D9002328E0B9
:10448C00FB1D1B78154AD15CBB1DBA1D12784A4026
:10449C001A70FB1D1A78FB1D01321A70E4E7C04636
:1044AC000F4B1B78043B0D4AD05C0D4B1B78033B28
:1044BC000A4AD35CFC1D190002F0C5F903002370F5
:1044CC00FA1DBB1D12781B789A4201D0002300E024
:1044DC0001231800BD4603B090BDC04670020020F9
:1044EC006C02002080B586B000AF80235B001148C1
:1044FC000122190005F08BFF80239B000D4801223F
:10450C00190005F084FF3B1D802292001A603B1DB0
:10451C0001225A603B1D01229A603B1D0022DA6089
:10452C003B1D044A1900100005F0D8FDC046BD46DD
:10453C0006B080BD0004004880B500AF80239B000E
:10454C0011480122190005F062FF80235B000E4820
:10455C000122190005F05BFF012003F0EFFA802324
:10456C009B0009480022190005F051FF012003F0BF
:10457C00E5FA80235B0004480022190005F047FF90
:10458C00C046BD4680BDC0460004004880B500AFA3
:10459C0080235B0011480022190005F038FF8023AE
:1045AC009B000E480022190005F031FF012003F09A
:1045BC00C5FA80235B0009480122190005F027FF8A
:1045CC00012003F0BBFA80239B0004480122190050
:1045DC0005F01DFFC046BD4680BDC0460004004826
:1045EC00B0B58CB000AF18217B18802292001A60F5
:1045FC007B1800225A607B1801229A607B18224A91
:10460C001900100005F06AFD80235B001E48002293
:10461C00190005F0FCFE012003F090FA80235B00EA
:10462C0019480122190005F0F2FE012003F086FA68
:10463C002F257C1980239B00134A1900100005F0CC
:10464C00C9FE0300237080235B000F480022190071
:10465C0005F0DDFE3B1D802292001A603B1D0122FD
:10466C005A603B1D01229A603B1D0022DA603B1D03
:10467C00054A1900100005F031FD7B191B78180054
:10468C00BD460CB0B0BDC0460004004880B500AFBC
:10469C0080239B0012480022190005F0B8FE01206F
:1046AC0003F04CFA80235B000D480122190005F041
:1046BC00AEFE012003F042FA80235B000848002282
:1046CC00190005F0A4FE012003F038FA80239B00AA
:1046DC0003480122190005F09AFEC046BD4680BD74
:1046EC000004004880B500AF80235B000C48012219
:1046FC00190005F08CFE80239B000948012219004B
:10470C0005F085FE012003F019FA80235B000448B4
:10471C000022190005F07BFEC046BD4680BDC04698
:10472C000004004880B584B000AF0200FB1D1A7075
:10473C000F23FB1800221A7038E080235B002348FB
:10474C000022190005F063FE0E203B18FA1D1278AA
:10475C007F218A431A703B181B78002B07D18023CA
:10476C009B001A480022190005F051FE06E0802338
:10477C009B0016480122190005F049FEFA1DFB1D8D
:10478C001B78DB181370012003F0D8F980235B0031
:10479C000E480122190005F03AFE012003F0CEF973
:1047AC000F217B181A787B1801321A700F23FB1813
:1047BC001B78072BC1D980235B0004480022190009
:1047CC0005F025FEC046BD4604B080BD000400487F
:1047DC0080B58CB000AF18217B18802292001A6033
:1047EC007B1800225A607B1801229A607B18384A89
:1047FC001900100005F072FC012003F09FF98023D2
:10480C005B0033480022190005F001FE2F23FB1832
:10481C0000221A702E23FB1800221A7035E001209A
:10482C0003F08CF980235B0029480122190005F064
:10483C00EEFD012003F082F92F23FA18FB181B78E8
:10484C00DB18137080239B00214A1900100005F01F
:10485C00C1FD031E06D02F22BB18BA1812780121F5
:10486C000A431A70012003F069F980235B00184891
:10487C000022190005F0CBFD012003F05FF92E2179
:10488C007B181A787B1801321A702E23FB181B78B0
:10489C00072BC4D93B1D802292001A603B1D0122BC
:1048AC005A603B1D01229A603B1D0022DA603B1DC1
:1048BC00074A1900100005F011FC012003F03EF925
:1048CC002F23FB181B781800BD460CB080BDC046CA
:1048DC000004004880B500AF80239B0103480122EF
:1048EC00190005F094FDC046BD4680BD000400488B
:1048FC0080B584B000AF0200FB1D1A700E23FB18AC
:10490C0000221A700F23FB1800221A7043E0802338
:10491C009B0127480022190005F079FD0E23FA1897
:10492C00FB181B78DB1813708023DB01204A19005D
:10493C00100005F04FFD0300012B06D10E22BB1811
:10494C00BA18127801210A431A70FB1D1B785BB24E
:10495C00002B07DA80231B0215480122190005F0F1
:10496C0056FD06E080231B0211480022190005F0B9
:10497C004EFDFA1DFB1D1B78DB18137080239B0169
:10498C000B480122190005F042FD0F217B181A7803
:10499C007B1801321A700F23FB181B78072BB6D922
:1049AC000E23FB181B781800BD4604B080BDC04612
:1049BC000004004880B586B000AFF860B9607A603A
:1049CC00FB680B4A944663447B6107E07A69131DCC
:1049DC007B61BB68191DB96012681A607B685A1E2E
:1049EC007A60002BF2D1C046BD4606B080BDC046F1
:1049FC0000F8030880B582B000AF0200FB1D1A70EE
:104A0C00FB1D1A78024B1A60C046BD4602B080BD31
:104A1C006C00002080B584B000AF786039600F2343
:104A2C00FB1800221A700023BB600CE07A68BB688C
:104A3C00D31819780F22BB18BA1812788A181A7062
:104A4C00BB680133BB60BA683B689A42EED30F2354
:104A5C00FB181B781800BD4604B080BD90B585B01E
:104A6C0000AF786039600823FB18012252421A808B
:104A7C001AE008203B1859787B685A1C7A601A781F
:104A8C000F243B194A401A703B181A783B191B78B3
:104A9C000A49CB5C5340DAB23B185A703B191B786D
:104AAC00074AD25C3B181A703B685A1E3A60002BBE
:104ABC00DFD1BB681800BD4605B090BD8CBA0008AC
:104ACC008CBB0008B0B584B000AF05000C00100022
:104ADC001900FB1D2A1C1A70BB1D221C1A703B1DD1
:104AEC00021C1A80FB1C0A1C1A70FB1D1B78082B5D
:104AFC0002D901235B420BE1BB1D1B78022B14D0A6
:104B0C00042B12D0012B0DD10C23F918F0231B010F
:104B1C000422180000F0DCFDFB68002B05D10323F8
:104B2C005B42F5E005235B42F2E0C046FB1C1B78C0
:104B3C000422134002D006235B42E9E0FB1C1B78E5
:104B4C00002B28D0BB1D1B78012B02D0022B08D0C8
:104B5C0026E0FB1C1B78212213401ED106235B424E
:104B6C00D6E0FB1C1B782022134007D0FB1C1B78C3
:104B7C005BB2002B02DB06235B42C9E0FB1C1B78FB
:104B8C00102213400BD0FB1C1B785BB2002B06DBF6
:104B9C0006235B42BCE0C04602E0C04600E0C046D3
:104BAC00FB1D1B78180000F0C5F8FB1D1B789B0043
:104BBC000133DB001800FB1C1B785BB20F22934304
:104BCC005AB2BB1D1B785BB213435BB2DBB219004C
:104BDC0000F028FD3B1D1B88002B0FD14E4B1B8872
:104BEC005A1C91B24C4A11803A1D13804A4B1B88B7
:104BFC004A4A934202D1484B494A1A80FB1D1B7802
:104C0C009B000133DB008022D200944663441A00DF
:104C1C003B1D1B881B0A9BB2DBB21900100000F075
:104C2C0001FDFB1D1B789B000133DB00A022D20091
:104C3C00944663441A003B1D1B88DBB2190010001C
:104C4C0000F0F0FCFB1D1B789B000133DB000133F3
:104C5C00FF330121180000F0E5FCC046FB1D1B785A
:104C6C009B000133DB000133FF33180000F088FC9C
:104C7C00031EF3D1FB1D1B7801229A4013001BB2BB
:104C8C00DB431BB2274A128812B213401BB29AB2F2
:104C9C00244B1A80FB1C1B7801221A40FB1D1B782D
:104CAC009A4013001AB21F4B1B881BB213431BB242
:104CBC009AB21C4B1A80FB1D1B7801229A401300E0
:104CCC001BB2DB431BB2184A128812B213401BB240
:104CDC009AB2154B1A80FB1D1A78144B5200002106
:104CEC00D152FB1D1B78124A0021D154C046FB1D2A
:104CFC001B789B000133DB00C02292009446634476
:104D0C00180000F03DFC031EF1D0FB1D1B785BB2BC
:104D1C001800BD4604B0B0BD00000020F0FF00003C
:104D2C0000C0FFFF70000020720000207400002003
:104D3C008400002080B582B000AF0200FB1D1A7009
:104D4C00FB1D1B78082B02D901235B425FE0FB1D86
:104D5C001B789B000133DB000133FF33102118005B
:104D6C0000F060FCC046FB1D1B789B000133DB0090
:104D7C000133FF33180000F003FC031EF3D1FB1DBD
:104D8C001B789B000133DB00802292009446634425
:104D9C001F21180000F046FCFB1D1B7801229A40D5
:104DAC0013001BB2DB431BB21B4A128812B2134016
:104DBC001BB29AB2184B1A80FB1D1B7801229A4029
:104DCC0013001BB2DB431BB2144A128812B21340FD
:104DDC001BB29AB2114B1A80FB1D1A78104B520061
:104DEC000021D152FB1D1B780E4A0021D154C04624
:104DFC00FB1D1B789B000133DB00C0229200944604
:104E0C006344180000F0BCFB031EF1D10123180011
:104E1C00BD4602B080BDC04670000020720000206C
:104E2C00740000208400002080B584B000AF39608D
:104E3C001100FB1D021C1A703B1D0A1C1A80FB1D65
:104E4C001B78082B02D901235B42E3E0FB1D1B7886
:104E5C009B000133DB00180000F092FB03001A00EA
:104E6C000F231340012B02D005235B42D2E0FB1D24
:104E7C001B789B000133DB00C022920094466344F4
:104E8C00180000F07DFB0300132B02D003235B42C0
:104E9C00C0E03B681B78FB60FB681B023A68013280
:104EAC0012789B18FB60FB681B023A68023212787E
:104EBC009B18FB60FB681B023A68033212789B1844
:104ECC00FB60FB68013302D0FB68002B02D10C2382
:104EDC005B429FE03B1D1B88002B02D10B235B42E6
:104EEC0098E0FB1D1B789B000133DB00C0221201F4
:104EFC009446634418003B680422190000F056FCE9
:104F0C00FB1D1B789B000133DB0080225201944671
:104F1C0063441A003B1D1B881B0A9BB2DBB21900B1
:104F2C00100000F07FFBFB1D1B789B000133DB00A6
:104F3C0088225201944663441A003B1D1B88DBB245
:104F4C001900100000F06EFBFB1D1B789B00013359
:104F5C00DB000133FF330421180000F063FBC04673
:104F6C00FB1D1B789B000133DB000133FF33180062
:104F7C0000F006FB031EF3D1284B1B881A00FB1D07
:104F8C001B781A4113000122134033D0002341E057
:104F9C00FB1D1B789B000133DB00802292009446A2
:104FAC006344180000F0ECFA03001A0008231340C5
:104FBC000FD0FB1D1B789B000133DB00802292007D
:104FCC00944663440821180000F02CFB0D235B422F
:104FDC0020E0FB1D1B789B000133DB00C0229200FC
:104FEC0094466344180000F0CBFA031E02D104234C
:104FFC005B420FE0FB1D1B789B000133DB00C022E2
:10500C00920094466344180000F0BAFA0300172B80
:10501C00BED101231800BD4604B080BD7000002035
:10502C0080B582B000AF0200FB1D1A70FB1D1B780F
:10503C00082B02D901235B426CE0FB1D1B789B0003
:10504C000133DB00180000F09BFA03001A000F2359
:10505C001340012B02D005235B425BE0FB1D1B7848
:10506C009B000133DB000133FF330821180000F0F3
:10507C00D9FAC046FB1D1B789B000133DB000133C2
:10508C00FF33180000F07CFA031EF3D1FB1D1B78D4
:10509C0001229A4013001BB2DB431BB21F4A128839
:1050AC0012B213401BB29AB21C4B1A801C4B1B88B9
:1050BC001A00FB1D1B781A411300012213401AD051
:1050CC00002327E0FB1D1B789B000133DB008022B3
:1050DC00920094466344180000F052FA03001A0040
:1050EC000823134007D0FB1D1B781800FFF722FE86
:1050FC000D235B420EE0FB1D1B789B000133DB0094
:10510C00C022920094466344180000F039FA031E42
:10511C00D8D101231800BD4602B080BD720000201A
:10512C0070000020B0B584B000AF39601100FB1DD9
:10513C00021C1A703B1D0A1C1A800F23FB1800223C
:10514C001A700C23FB1800221A80FB1D1B78082BED
:10515C0002D901235B421AE1FB1D1B789B00013332
:10516C00DB00180000F00CFA03001A000F231340A8
:10517C00012B02D005235B4209E13B1D1B88002B50
:10518C0002D10E235B4202E1FB1D1B789B00013315
:10519C00DB00C0229200944663440F257C19180052
:1051AC0000F0EEF9030023707B191B78172B07D046
:1051BC000F23FB181B781C2B02D007235B42E6E065
:1051CC00754B1B881A00FB1D1B781A41130001221A
:1051DC00134045D0FB1D1B789B000133DB00802264
:1051EC00920094466344180000F0CAF903001900B9
:1051FC000F203B181F220A401A703B181B781022F4
:10520C0013401DD0FB1D1B789B000133DB0080225B
:10521C009200944663441021180000F003FAFB1D21
:10522C001B7801229A4013001BB2DB431BB25A4A73
:10523C00128812B213401BB29AB2574B1A800FE06D
:10524C000F23FB181B780822134007D0FB1D1B787B
:10525C001800FFF76FFD0D235B4298E0002396E0EA
:10526C00FB1D1B789B000133DB00F8225201944696
:10527C006344180000F084F903009AB20C217B18E7
:10528C0092021A803A1D7B1812881B889A4204D904
:10529C003B1D0C22BA1812881A800C23FC18FB1D1B
:1052AC001B78180000F0F0FA03002380FB1D1B781C
:1052BC009B000133DB00C0229200944663440F250F
:1052CC007C19180000F05CF9030023707B191B7823
:1052DC00172B0CD00F23FB181B781C2B07D0FB1D96
:1052EC001B781800FFF726FD07235B424FE02B4B82
:1052FC001B881A00FB1D1B781A4113000122134056
:10530C0008D03A1D0C23FB1812881B889A4201D92D
:10531C0000233CE03A1D0C23FB1812881B889A4290
:10532C0004D93B1D3A1D12881A80B6E7C0463B1DB6
:10533C001A883968FB1D1B78180000F07FFBFB1DD9
:10534C001B789B000133DB000133FF332021180055
:10535C0000F068F9C046FB1D1B789B000133DB0095
:10536C000133FF33180000F00BF9031EF3D1FB1DC2
:10537C001B7801229A4013001AB2074B1B881BB2F0
:10538C0013431BB29AB2044B1A803B1D1B881800A6
:10539C00BD4604B0B0BDC0467200002070000020B5
:1053AC00B0B584B000AF39601100FB1D021C1A703F
:1053BC003B1D0A1C1A800F23FB1800221A700C23A9
:1053CC00FB1800221A80FB1D1B78082B02D9012325
:1053DC005B42CEE0FB1D1B789B000133DB00180009
:1053EC0000F0CEF803001A000F231340012B02D05B
:1053FC0005235B42BDE03B1D1B88002B02D10E2315
:10540C005B42B6E0FB1D1B789B000133DB00F022F6
:10541C00520194466344180000F0B2F803009AB2AB
:10542C000C217B1892021A807A183B1D12881B885B
:10543C009A4204D23B1D0C22BA1812881A800C23F3
:10544C00FC18FB1D1B78180000F08BFA030023805E
:10545C00FB1D1B789B000133DB00C022920094469D
:10546C0063440F257C19180000F08AF803002370A0
:10547C007B191B78172B30D00F23FB181B781C2B98
:10548C0023D10C23FB181B88002B41D1FB1D1B784F
:10549C00180000F0F9F903001C00FB1D1B789B00A1
:1054AC000133DB00F822520194466344180000F0EB
:1054BC0067F803009B029C420FD1FB1D1B78180060
:1054CC00FFF738FC07235B4253E0FB1D1B781800E9
:1054DC00FFF730FC07235B424BE0284B1B881A007C
:1054EC00FB1D1B781A4113000122134006D00C231C
:1054FC00FB181B88002B01D100233AE00C23FB186E
:10550C001B88002B06D13B1D3A1D12881A8096E78A
:10551C00C04600E0C0460C23FA183B1D12881B88BD
:10552C009A4204D23B1D0C22BA1812881A803B1DD9
:10553C001A883968FB1D1B78180000F0F8FAFB1D5F
:10554C001B789B000133DB000133FF334021180033
:10555C0000F068F8C046FB1D1B789B000133DB0094
:10556C000133FF33180000F00BF8031EF3D13B1D81
:10557C001B881800BD4604B0B0BDC04670000020AA
:10558C00B0B584B000AF7860254B9B689847244B2E
:10559C001B699847224B1B6A002B03D0204B5B6A7C
:1055AC00002B14D11E4BDB697A68120CD2B210009E
:1055BC0098471B4BDB697A68120AD2B210009847E5
:1055CC00174BDB697A68D2B21000984714E07B68FD
:1055DC001B0CDAB20C217B181A707B681B0ADAB22E
:1055EC007B185A707B68DAB27B189A700C4B5B6A2A
:1055FC007A18032110009847094B9B690F257C19D9
:10560C00984703002370064B5B699847044BDB6893
:10561C0098477B191B781800BD4604B0B0BDC04636
:10562C000400002080B584B000AF78600A00FB1C39
:10563C001A70264B9B689847244B1B6998477B68CC
:10564C00042213437B60214B5B6A002B1AD11F4B46
:10565C00DB697A68120CD2B2100098471B4BDB69DD
:10566C007A68120AD2B210009847184BDB697A6834
:10567C00D2B210009847154BDB69FA1C1278100057
:10568C00984718E07B681B0CDAB20C217B181A7057
:10569C007B681B0ADAB27B185A707B68DAB27B180B
:1056AC009A707B18FA1C1278DA70084B5B6A7A18BD
:1056BC00042110009847054B5B699847034BDB6846
:1056CC009847C046BD4604B080BDC04604000020CB
:1056DC00B0B586B000AFF860B960BB1D1A80324B14
:1056EC009B689847304B1B6998472F4B1B6A002BC4
:1056FC0003D02D4B5B6A002B2FD12B4BDB69FA6847
:10570C00120CD2B210009847274BDB69FA68120AC8
:10571C00D2B210009847244BDB69FA68D2B2100061
:10572C0098471623FB1800221A800EE01E4B9B692B
:10573C0016257A191288B9688C18984703002370BB
:10574C007B191A887B1901321A801623FA18BB1D93
:10575C0012881B889A42E9D31BE0FB681B0CDAB257
:10576C0010217B181A70FB681B0ADAB27B185A706E
:10577C00FB68DAB27B189A700B4B5B6A7A180321C0
:10578C0010009847084B1B6ABA1D1188BA681000A4
:10579C009847054B5B699847034BDB689847C046B5
:1057AC00BD4606B0B0BDC0460400002090B587B021
:1057BC0000AFF860B960BB1D1A80324B9B689847EC
:1057CC00304B1B699847FB6804221343FB602D4B3D
:1057DC005B6A002B2FD12B4BDB69FA68120CD2B20F
:1057EC0010009847274BDB69FA68120AD2B21000F6
:1057FC009847244BDB69FA68D2B2100098471623FD
:10580C00FB1800221A800EE01E4BDB6916243A1995
:10581C001288B9688A181278100098473B191A88B0
:10582C003B1901321A801623FA18BB1D12881B88EB
:10583C009A42E9D31BE0FB681B0CDAB210217B18EF
:10584C001A70FB681B0ADAB27B185A70FB68DAB262
:10585C007B189A700B4B5B6A7A18032110009847DF
:10586C00084B5B6ABA1D1188BA6810009847054B43
:10587C005B699847034BDB689847C046BD4607B049
:10588C0090BDC04604000020B0B584B000AF02004B
:10589C00FB1D1A700E23FB1800221A800C23FB1818
:1058AC0000221A80FB1D1B789B000133DB00802239
:1058BC009201944663441800FFF762FE03001A003D
:1058CC000C257B191A807B191B881B029CB2FB1DB3
:1058DC001B789B000133DB008422920194466344C5
:1058EC001800FFF74DFE03009AB27B19A2181A801C
:1058FC007B191B88002B25D0FB1D1B789B000133CB
:10590C00DB0080229201944663441800FFF738FEB6
:10591C0003001A000E257B191A807B191B881B02A9
:10592C009CB2FB1D1B789B000133DB00842292018F
:10593C00944663441800FFF723FE03009AB27B19C8
:10594C00A2181A800E23FA180C23FB1812881B8835
:10595C009A42A7D10E23FB181B881800BD4604B031
:10596C00B0BDB0B584B000AF0200FB1D1A700E23A1
:10597C00FB1800221A800C23FB1800221A80FB1D36
:10598C001B789B000133DB00982292019446634400
:10599C001800FFF7F5FD03001A000C257B191A807F
:1059AC007B191B881B029CB2FB1D1B789B000133CF
:1059BC00DB009C229201944663441800FFF7E0FD43
:1059CC0003009AB27B19A2181A807B191B88002B32
:1059DC0025D0FB1D1B789B000133DB009822920124
:1059EC00944663441800FFF7CBFD03001A000E2504
:1059FC007B191A807B191B881B029CB2FB1D1B7820
:105A0C009B000133DB009C229201944663441800F6
:105A1C00FFF7B6FD03009AB27B19A2181A800E2369
:105A2C00FA180C23FB1812881B889A42A7D10E2354
:105A3C00FB181B881800BD4604B0B0BD90B585B0EE
:105A4C0000AF39601100FB1D021C1A703B1D0A1CB3
:105A5C001A800E23FB1800221A800023BB603B1D0A
:105A6C001B88002B5FD0FB1D1B789B000133DB00D8
:105A7C0090229201944663441800FFF781FD0300C5
:105A8C009BB21B029CB2FB1D1B789B000133DB00FD
:105A9C0094229201944663441800FFF771FD0300B1
:105AAC009AB20E217B18A2181A800C003B191B8885
:105ABC001B02FA1D127892000232D2009B18BB60B6
:105ACC003B1D1A883968BB681800FFF76FFE3B193D
