:020000040800F2
:10000000A8050020D50000088D1B0008191A00085B
:1000100000000000000000000000000000000000E0
:10002000000000000000000000000000591D000852
:1000300000000000000000008F1B00085B1D00088E
:10004000E7000008E7000008E7000008E7000008F4
:10005000E7000008E7000008E7000008C104000806
:10006000E7000008E7000008E70000086504000852
:10007000E7000008E7000008E7000008E7000008C4
:10008000E7000008E7000008E7000008E7000008B4
:10009000E7000008E7000008E7000008E7000008A4
:1000A000E7000008E7000008E7000008E700000894
:1000B000B1230008E7000008E7000008E700000897
:1000C0000348854600F08EF8004800475524000894
:1000D000A80500200448804704480047FEE7FEE7E3
:1000E000FEE7FEE7FEE7FEE7C11D0008C1000008CD
:1000F00030B50B46014600202022012409E00D46C0
:10010000D5409D4205D31D469540491B2546954047
:1001100040191546521E002DF1DC30BDF0B51FB45C
:100120000646002082B005464024019100901BE065
:10013000019922460F46304600F020F8049A059BAC
:10014000801A994110D310461946224600F039F81A
:10015000361A8F410197224601200021009F00F0AE
:1001600030F838184D4100902046641E0028DFDC2E
:10017000019B00982946324607B0F0BD10B5202AF1
:1001800004DB0846203AD040002110BD0B46D34086
:10019000D0402024A21A91400843194610BDD2B283
:1001A00001E00270401C491EFBD270470022F6E7B6
:1001B00010B513460A4604461946FFF7F0FF2046DD
:1001C00010BD10B5202A04DB0146203A91400020E2
:1001D00010BD914020239C1A0346E34019439040F0
:1001E00010BD0000064C0125064E05E0E36807CC73
:1001F0002B430C3C98471034B442F7D3FFF764FF0D
:10020000F42400081425000870B5012409252403EE
:10021000ED0600222146284600F095FBFF20F53030
:1002200000F048FA01222146284600F08CFB00210C
:10023000064A08465054491C1829FBD30449086053
:100240004860886000F078F870BD000074010020FC
:100250002000002038B50125AD020924E406294616
:10026000204600F06BFB0028F9D10125ED020022A9
:100270002946204600F067FB6420064A18230090B8
:10028000D11A054801F028F801222946204600F03D
:100290005AFB38BD8C01002048000020F8B501272A
:1002A000BF0209260446F6063946304600F046FBF2
:1002B0000028F9D10125ED0200222946304600F040
:1002C00042FBE00105214903194C0843010A217052
:1002D000607064201823E2180090D11A154800F0CD
:1002E000FBFF01222946304600F02DFB002525703A
:1002F00065703946304600F021FB0028F9D101270E
:10030000FF0200223946304600F01DFB084A6420F7
:10031000182318320090D11A064800F0DDFF0122A0
:100320003946304600F00FFB25706570F8BD0000BF
:10033000740100204800002070B50320FFF7AEFFD5
:100340001448017840780902081884B2124800F075
:1003500029F8124D1C20296884430846FF38F538D7
:100360000ED00A20C82910D00C2121436860032038
:1003700000F044F80A4800F015F80020A86070BDAD
:100380001020214601430120F0E7214608221143B5
:10039000ECE700008C01002055060000140000204E
:1003A00055050000F8B50124A40209260546F60605
:1003B0002146304600F0C2FA0028F9D10127FF0299
:1003C00000223946304600F0BEFA0A4C280A207056
:1003D000657064201823E2180090D11A064800F0D6
:1003E0007BFF01223946304600F0ADFA0020207034
:1003F0006070F8BD7401002048000020F8B50127A6
:10040000BF0209260D460446F6063946304600F07E
:1004100095FA0028F9D10127FF020022394630461B
:1004200000F091FAE001032149030C4C0843010A52
:1004300021706070280AE070257164201823E2188A
:100440000090D11A064800F047FF01223946304695
:1004500000F079FA002020706070F8BD740100206F
:100460004800002010B5024800F075F810BD0000EB
:100470003001002010B504460068054940181421D9
:10048000FFF736FE800020640248E06310BD0000E4
:10049000F8FFFDBF0000024030B5056C0124AC4000
:1004A000C56B6C60046863604368102B036803D0FD
:1004B00099600068C26030BD9A600068C16030BD5C
:1004C00010B50120800200F06DF910BD704730B505
:1004D000014620314B780022022B04D00423836391
:1004E0000A70012030BD03681C680E25AC431C60F7
:1004F00003681C68640864001C600123056C1C46CA
:10050000C06BAC4044604B700A70002030BD70B5C9
:100510000024014620314A78022A03D00421816355
:10052000012416E0026813680E25AB4313600268CD
:1005300013685B085B0013600122056C1346AB4037
:10054000C56B6B604A7000220A70416B002900D0B5
:100550008847204670BDF0B4C16B0D6801680C6817
:100560000422066C1346B3402B420DD063070BD513
:100570000B689B0602D40B6893430B60016C8A40A6
:10058000C16B4A60C16A19E00227B74002462F409A
:1005900001232032002F15D0A70713D50C68A4061D
:1005A00004D40C680A25AC430C605370036C022120
:1005B0009940C36B596000211170816A002916D0DF
:1005C000F0BC08470827B7402F4210D024070ED5AB
:1005D0000C680E25AC430C60046C1946A140C46B3A
:1005E00061608363537000211170016BE6E7F0BC1A
:1005F0007047000070B5040021D002212046203051
:1006000005464170226811680E48A3680140606881
:1006100026691843E3683343184363691843A369A1
:100620001843E3691843084310602046FFF722FF90
:100630000021A163012068702970084670BD012067
:1006400070BD00000FC0FFFFF8B504468C46203097
:1006500001780025012909D001260670417800277C
:10066000012905D0077002252846F8BD0220F8BDF3
:1006700002214170A76320680168490849000160B0
:1006800061462046FFF708FFE06A002820680168FD
:1006900002D00E22114306E00A22114301602068B5
:1006A00001680422914301602068016831430160C0
:1006B000DAE7000070B5044600F04CF90546601C0E
:1006C00002D004480078241800F044F9401BA042EE
:1006D000FAD370BD04000020FEB5012189028842D2
:1006E00055D1FFF7B7FD2A4C2A486168C27A837A50
:1006F0008918427A1B021204D2188D186560827B19
:100700002168437B8918027B1B021204D2188A18C5
:100710002260437CA168C918C37B007C1B040002D3
:1007200018180818A06001901B481C4B0168491C50
:1007300001601B680093994229D100270760194680
:100740001046FFF7D5FC064628460099FFF7D0FC77
:10075000054600990198FFF7CBFC01462046320C74
:100760000C300270320A427086702A0CC2702A0A5B
:10077000027145710A0C82710A0AC2710172276006
:100780006760014609220648A76001F0EBF8FEBD4C
:10079000200000208C0100201C00002018000020F8
:1007A000AC00002010B504494A69024202D04861F9
:1007B000FFF792FF10BD000000040140FCB50023CC
:1007C0000124A6E027462A469F403A4073D04D6850
:1007D000012D05D0022D03D0112D01D0122D16D1DF
:1007E00085680326AC465D00AE46AE406546B5431F
:1007F000AC46CE687546AE4065462E438660466878
:100800000D79BE43ED06ED0F9D4035434560C6684A
:100810005F000325BD40AE46AE4335468E68BE4000
:100820002E43C6604E68022E01D0122E14D1DE086F
:10083000B60036180196366A5D07B446EE0E0F25EF
:10084000B54000966646AE43B4460D69009EB5407D
:1008500066462E43019D2E6206687546AE430D79AD
:10086000AD07AD0FBD40354305604D68ED004FD578
:100870002B4DAE692643AE61AD699E08ED07ED0FC5
:100880000095284DB6007519AC46AD689E07360F29
:100890000F27B740BD430927FF06B84201D1002703
:1008A00015E0214FB84201D1012710E01F4FB84297
:1008B00002D102270BE02BE01D4FB84201D10327E4
:1008C00005E01C4FB84201D1042700E00527B740DE
:1008D0002F436546AF60184E35684F689543FF0358
:1008E00000D51543356075684F689543BF0300D543
:1008F00015437560B5684F689543FF0200D51543F1
:10090000B560F5684F689543BF0200D51543F560A3
:100910005B1C0A681546DA4000D053E7FCBD0000B6
:100920000010024000000140000400480008004898
:10093000000C004800100048000401400069084015
:1009400000D001207047002A01D081617047816288
:1009500070470000014880687047000004000020D4
:1009600070B504000FD0216813480860216813484F
:10097000086003CC41602068083C21688860FFF76C
:10098000E9FF054608E0012070BDFFF7E3FF401BCB
:10099000262801D9032070BD2068C0680028F4D142
:1009A00020680269E1688A4201D0016101E00449DE
:1009B0000160002070BD0000CCCC00005555000047
:1009C000AAAA0000024881680278891881607047ED
:1009D0000400002010B50648016810221143016090
:1009E000002000F007F800F027F8002010BD0000FC
:1009F0000020024070B504460D4D7D202978C000CE
:100A0000FFF776FB01460B480068FFF771FB00F02B
:100A10005DFD002809D1042C07D200222146401E8A
:100A200000F03AF800206C6070BD012070BD00003D
:100A3000040000201000002008B508488169012248
:100A400011438161816911400091C26901040A4327
:100A5000C261C0690840009008BD0000001002405B
:100A6000002809DBC106C90E01208840034908603F
:100A7000BFF34F8FBFF36F8F7047000080E100E03E
:100A8000002805DBC106C90E012088400149086025
:100A90007047000000E100E010B501F0A9FC10BDB6
:100AA000F8B504460068434DC00352D5E8690026F6
:100AB000C00007D4E96928040143E961E9690140FC
:100AC000012600913C480168C90510D401688215CF
:100AD00011430160FFF73EFF074604E0FFF73AFFCE
:100AE000C01B642824D834480068C005F6D5286A9D
:100AF00003273F02384020D06168394081421CD032
:100B0000286A2A6AB843012109040A432A622A6A28
:100B10008A432A622862C0070FD0FFF71BFF0090AC
:100B200008E0FFF717FF0099411A2448814201D9D4
:100B30000320F8BD286A8007F3D5286A6168B843A6
:100B400008432862002E04D0E86901210907884380
:100B5000E8612078C00705D0286BA1688008800074
:100B6000084328632078800706D5286B03210904F1
:100B70008843E168084328632078800605D5286B00
:100B8000102188432169084328632068800305D524
:100B9000286B80218843A169084328632088400589
:100BA00005D5286B402188436169084328630020EC
:100BB000F8BD0000001002400070004088130000E3
:100BC000F8B50F4606005FD03D4D2868C007C00F3E
:100BD000B84209D228684008400038432860286895
:100BE000C007C00FB8424FD13068364C81070CD5D2
:100BF000400704D560680721090208436060606807
:100C0000F0218843B168084360603078C0072CD079
:100C10007068012810D0022811D0032812D0216852
:100C20008907002930DA6168890889000143616019
:100C3000FFF790FE009011E021688903F1E7216839
:100C40008901EEE7616BC903EBE7FFF783FE0099CB
:100C5000411A1D48814201D90320F8BD60680C216A
:100C60000840716889008842EFD12868C007C00F2A
:100C7000B8420BD9286840084000384328602868EB
:100C8000C007C00FB84201D00120F8BD307840073E
:100C900006D56068072109028843F168084360604F
:100CA00000F028F86168094A0906090F515CC8403C
:100CB000074908600020FFF79DFE0020F8BD0000F6
:100CC000002002400010024088130000DC240008CD
:100CD000100000200448054900684968044A490595
:100CE000490F515CC84070471000002000100240BE
:100CF000EC24000830B519A30FCB89B06C460FC4A3
:100D00001AA30FCB0FC41D4A51680C200B46034099
:100D10001B48042B05D01B4D082B04D00C2B00D1F5
:100D2000284609B030BD8B021B0F6C46E45CD26ACA
:100D300004AB1207120FC9039A5C890F022901D074
:100D4000032901D0002301E0002328460021FFF7FA
:100D5000E5F9214601F034FBE3E700000203040556
:100D6000060708090A0B0C0D0E0F101001020304F0
:100D700005060708090A0B0C0D0E0F1000100240A3
:100D800000127A00006CDC02FEB5040070D02078FE
:100D9000F94EFA4DC00748D068680007800F012857
:100DA0001FD068680007800F022804D16868C0035C
:100DB000800F022815D06168012919D00120800414
:100DC000002901D0052917D02968B1432960296875
:100DD00081432960606800281BD0FFF7BBFD0746F0
:100DE00013E02868800320D560680028CED01CE07E
:100DF000286830432860EDE7296801432960F7E758
:100E0000FFF7A8FDC01B642870D828688003F7D5B9
:100E10000BE0FFF79FFD074604E0FFF79BFDC01BBB
:100E20006428F1D828688003F7D4207880073FD55C
:100E300068680007800F14D068680007800F0228D8
:100E400004D16868C003800F01280AD0E068002838
:100E500028681ED0012108432860FFF77BFD074664
:100E60000CE0286880070CD5E068012800D108E074
:100E700080E1FFF76FFDC01B0228C5D828688007F6
:100E8000F7D52868F82188432169C90008432860FC
:100E90000EE0400840002860FFF75CFD074604E0D4
:100EA000FFF758FDC01B0228AED828688007F7D48A
:100EB0002078000723D5E0690028686A0FD0012157
:100EC00008436862FFF746FD074604E0FFF742FD6E
:100ED000C01B022898D8686A8007F7D50FE0400841
:100EE00040006862FFF736FD074605E0C3E0FFF704
:100EF00031FDC01B022887D8686A8007F7D42078A4
:100F000004274007002861DA00200190E869C0004A
:100F100008D4E969B8060143E961E96901400120A3
:100F20000091019096480168C90511D401688215A5
:100F300011430160FFF70EFD009005E0FFF70AFD89
:100F40000099401A642898D88D480068C005F5D5E6
:100F5000A06801280AD0002801D0052811D0286AED
:100F6000400840002862286AB84302E0286A01214C
:100F700008432862A068002812D0FFF7EBFC00901D
:100F80000AE0286A38432862F0E7FFF7E3FC00999B
:100F9000411A7C4881426ED8286A8007F5D50DE059
:100FA000FFF7D8FC009006E0FFF7D4FC0099411A47
:100FB000744881425FD8286A8007F5D401980028D8
:100FC00004D0E969012000078143E9612078C00667
:100FD00035D5606901280CD0401D686B24D038439A
:100FE0006863686B400840006863FFF7B3FC07461E
:100FF00022E0686B38436863686B012108436863CB
:10100000FFF7A8FC074604E0FFF7A4FCC01B02287A
:1010100031D8686B8007F7D5686BF8218843A169E0
:10102000C900084368630AE0B8436863F4E7FFF760
:1010300091FCC01B02281ED8686B8007F7D420786B
:10104000800637D568680007800F032814D06868C9
:101050000007800F022804D16868C003800F0328AE
:101060000AD0206A0028686B16D030436863FFF707
:1010700071FC06460CE062E0686BC0031AD5206A7A
:10108000012877D116E0FFF765FC801B022856D8AF
:10109000686BC003F7D50DE0B0436863FFF75AFCF7
:1010A000064604E0FFF756FC801B022847D8686B11
:1010B000C003F7D4606A002866D069680907890F01
:1010C000022942D0012636060228286805D0B043FE
:1010D0002860FFF73FFC044633E0B0432860FFF789
:1010E00039FC074604E0FFF735FCC01B022826D870
:1010F00028688001F7D4E86A216B000900010843E1
:10110000E862A16AE06A084369687B22D2039143DE
:1011100008436860286830432860FFF71BFC0446DA
:1011200004E0FFF717FC001B022808D8286880019C
:10113000F7D529E0FFF70EFC001B022801D9032098
:10114000FEBD28688001F5D41EE00128F8D068684B
:10115000E96A0322D203A36A02409A420AD109072C
:10116000226B090F914205D10F2189040840E16AE1
:10117000884209D00120FEBD00000100001002409D
:1011800000700040881300000020F4E7F8B5040068
:101190000CD0606A002500280AD0256165612646CA
:1011A0004036A562707F002808D00BE00120F8BD12
:1011B0006168C81FFD38F2D0E561F0E73577204659
:1011C00000F05CF80222727720680168402399439E
:1011D00001600723E1681B02994201D9002001E068
:1011E000012000030F273F02B94202D0994200D0EC
:1011F000A562FF236168053319402127A368BF0258
:101200003B40194323691340227D1943D207D20F73
:1012100011430123A2695B021A401143E26938239A
:101220001A401143226A80231A401143A26A9B018B
:101230001A40114322681160A1690422090C11406F
:10124000626A10231A401143626B08231A4011434B
:101250000F23E2681B021A401143012212031040BF
:101260000143206841602068C16952109143C16107
:101270002566012070770020F8BD000010B586B00B
:10128000044614216846FEF791FF11492068884200
:101290001CD11048826981140A43826182690A4024
:1012A0000592426949010A4342614069084005903C
:1012B000E020009002200190002103200390029181
:1012C000049109206946C006FFF778FA06B010BD00
:1012D0000030014000100240FFB5044683B00120F9
:1012E00001900020254640350090287F0C9F1E4627
:1012F00001280FD001202877FFF72CFB0290687F90
:10130000616801280DD0CA1FFD3A08D1A1680029E3
:1013100005D102E0022007B0F0BD042801D0022070
:10132000D1E00498002820D0059800281DD0002E78
:101330001BD0687F042801D0052068770020206634
:1013400005992164EE80AE800499A163E687A687A3
:10135000E064206507210120E268090200038A4257
:101360002268536803D9834302E00120ABE00343C2
:10137000536020680268520603D4026840231A436F
:101380000260E0688842606844D9002801D0012EDC
:1013900039D1A06B21680088C860A06B801CA06355
:1013A000E08F401EE0872EE020688168890710D515
:1013B000E18F00290DD0019901290AD1A16B09887B
:1013C000C160A06B801CA063E08F401EE0870020FE
:1013D000019020688168C9070DD0E98800290AD0EA
:1013E000C068216C0880206C801C2064E888401E46
:1013F000E88001200190FFF7ADFA0299401AB84247
:1014000001D3781C5ED1E08F0028CDD1E888002878
:10141000CAD146E0002801D0012E3CD1A06B216842
:1014200000780873A06B401CA063E08F401EE0872B
:1014300031E020688168890710D5E18F00290DD03F
:10144000019901290AD1A16B09780173A06B401C95
:10145000A063E08F401EE087002001902068816833
:10146000C9070DD0E98800290AD0007B216C0870DB
:10147000206C401C2064E888401EE8800120019018
:10148000FFF768FA0299401AB84202D3781C02D0DA
:1014900018E0002F16D0E08F0028CAD1E888002875
:1014A000C7D139462046029A00F072FB002803D0CB
:1014B00001200090202020660120687700202877F6
:1014C000009828E703200090F6E70000094910B5CE
:1014D000401E884201D9012010BD074C60610321E4
:1014E000081F00F085FF0020A06107202061002078
:1014F00010BD0000FFFFFF0000E000E070477047F4
:1015000010B5016806480268914208D12021C167E0
:1015100001220449024800F09BF90028F8D010BDD0
:10152000AC00002000000020F8B502680446D06935
:1015300011689668804B05461D402023002D6CD015
:10154000F7077E4DFF0FBC460D402F4379D025464F
:10155000C7078035002F06D0CF0504D501271762B5
:101560002A683A432A60820708D5F20706D027681E
:1015700002223A622A6804273A432A60420708D5C1
:10158000F20706D02668042232622A680226324315
:101590002A6002070AD50A461A406646324305D039
:1015A0002668082232622E6816432E60020508D58E
:1015B0004A0106D501222668D20232622A681A43FD
:1015C0002A602A68002A30D0800606D5880604D50D
:1015D000616E002901D02046884728682168896803
:1015E000490602D42821084225D0204600F0FAFC02
:1015F00020688168490619D5826840218A43826043
:10160000206F002812D04E494163206FFEF77FFF04
:1016100000280AD0206F416B06E0850611D58D06A3
:101620000FD5616E76E020468847F8BD2046FFF76B
:1016300067FFF8BD05E02046FFF762FF0020286045
:10164000F7E7256E012D55D1C50653D5CD0651D5E9
:101650001026166220688168254649064035002913
:1016600029DA226F116849680904090CE1D02F8B2F
:101670008F42DED969839169202917D00168320130
:1016800091430160206881684908490081602068B1
:101690008168402291438160E367002020662068D2
:1016A0000168B1430160206FFEF711FF288B698B41
:1016B000401A81B21AE0298B6A8B891A6A8B89B227
:1016C000002AB6D00029B4D00268FF252135AA43EC
:1016D000026020688268520852008260E36700203E
:1016E0002066606620680268B24302602046FFF709
:1016F00005FF9EE7C50208D5750206D50120000545
:1017000010622046FFF7FBFE93E7050605D50D06A0
:1017100003D5A16E002986D18BE7400689D54806FE
:1017200087D52046146840218C43146083670021CC
:10173000816600F06FF97CE70F08000020010004CB
:101740004D1F000810B5040003D0A06F002802D080
:1017500007E0012010BD002174200155204600F053
:1017600027F82420A0672068016849084900016023
:10177000204600F0CFFC0128ECD0606A002802D09F
:10178000204600F04BFB206841680922D2029143B9
:101790004160206881682A22914381602068016845
:1017A000012211430160204600F09EFB10BD0000A5
:1017B00070B586B0064614216846FEF7F7FC20494E
:1017C000306888423AD11F49CA6901204004024367
:1017D000CA61CA69024005924A6902434A6149697D
:1017E0000025014005910C2000900220019003206B
:1017F000039001200490092002956946C006FEF777
:10180000DDFF124C104820601020A560606025614B
:101810006561A5618020E561E0602046FEF7EAFE93
:10182000002801D0FEF752FEF466002211461C206B
:101830006662FFF731F91C20FFF722F906B070BD90
:1018400000440040001002404400024030010020EB
:1018500030B5C36F202B24D100290BD0002A09D02A
:10186000012483682403A34206D10369002B03D11A
:10187000CB0701D0012030BD034660331C7D012C15
:101880000FD001241C750023036603685C682402E2
:1018900004D51C680125AD062C431C6000F0ECFC4F
:1018A00030BD022030BD000070B5294900680968CC
:1018B000884249D1274801782748BB292AD006DC2D
:1018C000552909D066291DD0AA292AD116E0CC298C
:1018D00023D0DD2925D138E0012409252403ED0694
:1018E000002221462846FFF72EF80A2000F0DEFDF0
:1018F000012221462846FFF726F812E00720FFF7CD
:10190000AFF80EE001201549800248610720FFF77B
:10191000B7F806E0FF21F53100E0C8210160FEF7CD
:101920000BFD00200E49FF220A54401C0928FBD35E
:1019300009220B49064800F015F801220549044820
:10194000FFF786FF0028F8D070BD6421E6E70000AD
:10195000AC00002000000020140000200004014022
:101960002C000020F8B50446806F20284AD10029B9
:101970000BD0002A09D00123A0681B03984206D18E
:101980002069002803D1C80701D00120F8BD2546F1
:101990006035287D012835D001202875204640304B
:1019A000E164028242820026274680373E60212081
:1019B000A067E06E00281AD013498162E16E1348D7
:1019C000C862E16E12480863E06E13464663206801
:1019D000E16C283084466246E06EFEF735FE002852
:1019E00005D0102038602E752020A067CDE7216833
:1019F000402008622E752068816880221143816032
:101A00000020F8BD0220F8BDAD1F0008DB1F000854
:101A1000611F000870477047FEE7000008B50848DE
:101A20004169012211434161406910400022009048
:101A300011460B20FFF730F80B20FFF721F808BD07
:101A40000010024030B587B014216846FEF7AEFBA7
:101A50001F484269012189050A43426142690A40DF
:101A60000592426949110A434261406909250840CB
:101A70000321ED0605900122C9022846FEF763FF07
:101A800001208002009013480124019069460294CD
:101A90002846FEF793FEE002009001940294694606
:101AA00003942846FEF78AFE20030090002003904E
:101AB0000194029469462846FEF780FE0022012127
:101AC0000720FEF7E9FF0720FEF7DAFF07B030BD79
:101AD000001002400000211010B5084806490160BE
:101AE000002141600649C1608160FEF739FF00288E
:101AF00001D0FEF7EBFC10BD0030004038000020A4
:101B0000FF0F000010B511480F490160FF2105319A
:101B100041600021072212028160C260016101223E
:101B2000426152028261016228224162C261816285
:101B300007220163C2624163FFF728FB002801D03E
:101B4000FEF7C4FC10BD000000300140480000203A
:101B500010B50C480A4901600B49416000218160C1
:101B6000C16001618161C1610C2201624261416217
:101B7000FFF7E8FD002801D0FEF7A8FC10BD00002B
:101B800000440040AC00002020A1070070477047CF
:101B9000F8B50F460B461546009203210446002275
:101BA000C90200F01BF82026002812D13B46002273
:101BB00080212046009500F073F8002809D1032108
:101BC0003B46002249022046009500F007F8002815
:101BD00003D0206E304320660320F8BDFFB583B0EC
:101BE00017460E4604460C9DFEF7B4FE411B0698B0
:101BF000451AFEF7AFFE01902848232100684843AC
:101C0000000D684342E0032149028E4202D1002FB9
:101C100000D1007B0698401C39D0FEF79BFE01994D
:101C2000401AA84205D2002D03D0009800282BD0DE
:101C30002BE020684168E022914341606068C11F49
:101C4000FD390CD10121A068C903884202D0491195
:101C5000884204D12068016840229143016001203C
:101C6000A16A4003814207D121680A6882430A6061
:101C700021680A6802430A6001204034607700202E
:101C80002077032007B0F0BD0025401E009020689B
:101C900081683140B942B6D10020F3E7100000203E
:101CA000FFB581B01E4604460A9DFEF753FE401B59
:101CB000351AFEF74FFE0746264800684001000D22
:101CC000684339E0701C38D0FEF744FEC01BA842C0
:101CD00005D2002D03D0009800282BD02BE02068DF
:101CE0004168E022914341606068C11FFD390CD119
:101CF0000121A068C903884202D04911884204D159
:101D0000206801684022914301600120A16A4003DC
:101D1000814207D121680A6882430A6021680A6803
:101D200002430A60012040346077002020770320BE
:101D300005B0F0BD0025401E009020688168029823
:101D4000884305D0002103988142BBD10020EFE7F2
:101D50000121F8E710000020704710B5FEF732FEB1
:101D600010BD30B599B034216846FEF71FFA002443
:101D70000D940E940F941C2111A81094FEF716FADE
:101D80000920009001200790019000040A900001B2
:101D900002250B9009950C946846FEF7F5FF072085
:101DA0000D900F9401210E9510940DA8FEF708FFD9
:101DB00011A811951494FEF773FE19B030BD000000
:101DC000124801680122114301604168104A114024
:101DD000416001680F4A11400160016801229204CC
:101DE0009143016041683F22120491434160C16AFE
:101DF00009090901C162016B074A11400163416B86
:101E00004908490041630021816070470010024089
:101E10000CB8FF08FFFFF6FE2CFEFCFF10B5818C0E
:101E2000C90707D001684A6801235B049A43836AA3
:101E30001A434A60818C890707D501684A680123E3
:101E40001B049A43C36A1A434A60818C490707D529
:101E500001684A6801239B049A43036B1A434A6052
:101E6000818C090707D501684A680123DB039A437F
:101E7000436B1A434A60818CC90607D50268916892
:101E800001231B039943836B19439160818C89065D
:101E900007D501688A6801235B039A43C36B1A4321
:101EA0008A60818C490612D503685A6801210905A8
:101EB000046C8A4322435A60026C8A4207D102684A
:101EC000516803235B059943436C19435160818C2E
:101ED000090607D501684A680123DB04806C9A4330
:101EE00002434A6010BD0000F8B504460026803069
:101EF0000660FEF72FFD054620680068124F0007B8
:101F000009D501212B46002249052046009700F003
:101F1000FFF900280DD12068006840070BD501218A
:101F20002B46002289052046009700F0F1F9002891
:101F300001D00320F8BD2020A067E067266660344A
:101F400026750020F8BD0000FFFFFF0110B5406AB4
:101F50000022014640314A834A82FFF7D1FA10BD80
:101F600070B5446AA06FE56F21688968002609068C
:101F7000002906DA212804D152200653204600F019
:101F80004AF820688068400606D5222D04D15A20E0
:101F90000653204600F026F82046803001681022C3
:101FA000114301602046FFF7ABFA70BD10B5014642
:101FB0008969406A20290DD0002252210A52016805
:101FC0008A6880239A438A6000680168402211432E
:101FD000016010BDFFF71EFD10BD10B5406AFFF790
:101FE0001AFD10BD01680A68FF2321339A430A6075
:101FF00001688A68520852008A60016E012904D182
:1020000001680A6810239A430A602021C1670021F1
:1020100001664166704701680A68C0239A430A60F6
:1020200020218167704770B504464030828BE36F92
:102030002168222B04D0886908221043886170BD72
:10204000898C636D11401980616D891C6165418BBC
:10205000491E4183418B0029F1D121680A68FF2381
:1020600021339A430A6021688A68520852008A60C4
:102070002021E16700256566216E012904D02046F4
:10208000FFF712FC256670BD21680A6810239A4389
:102090000A60018B2046FFF731FAF3E770B504467A
:1020A0004030828BE36F2168222B04D0886908229C
:1020B0001043886170BD898C1140626D1170616D33
:1020C000491C6165418B491E4183418B0029F1D137
:1020D00021680A68FF2321339A430A6021688A68CD
:1020E000520852008A602021E16700256566216E52
:1020F000012904D02046FFF7D7FB256670BD216873
:102100000A6810239A430A60018B2046FFF7F6F90C
:10211000F3E7000070B5044680682169E26908436E
:10212000616900251143084321680A684A4B1A4037
:1021300002430A6020684168032212039143E26867
:1021400011434160216AA0690143206882680B2322
:102150001B029A430A438260404A206840499042E9
:102160000AD1086B8007800F22D0012816D00228E0
:1021700016D003281ED10FE03A4A904212D1096BC3
:1021800003200004014016D001200004091A05D0E4
:10219000091A05D081420DD102210CE004210AE088
:1021A000082108E03049884202D03049884201D1F4
:1021B000002100E010210120E369C0032C4A2D4ECC
:1021C000834223D1002906D0022907D0042907D051
:1021D000082937D108E0FEF77DFD03E0104603E053
:1021E000FEF788FD002831D0616840004A08801859
:1021F000FDF77EFF80B201461039B14222D81D4959
:10220000491C01400007400F08431DE0002906D08B
:10221000022907D0042907D0082913D108E0FEF7C6
:1022200059FD03E0104603E0FEF764FD00280DD0E1
:1022300061684A081018FDF75BFF80B2014610394B
:10224000B14201D9012501E02168C8600020606623
:10225000A066284670BD0000F369FFEF003801401A
:10226000001002400044004000480040004C004084
:1022700000127A00EFFF000070B541650146403161
:102280000A834A8300224266012483682403FF25CF
:10229000A34204D10369002B13D11A4B0AE07F2615
:1022A000002B09D001252D07AB420CD10369002B6F
:1022B00005D03F238B8307E00369002B01D08E8379
:1022C00002E08D8300E08A8380210A502221C167C9
:1022D00001688B6801252B438B608168A14202D184
:1022E000016900290BD00849416674210A5400682D
:1022F0000168FF22213211430160002070BD0349B3
:10230000F2E70000FF0100009D20000827200008E0
:10231000FFB581B005460F46044660350A9E39E098
:10232000701C37D0FEF716FB0499401AB04222D831
:10233000002E20D02068016849072BD5C069C04312
:10234000000527D401202168C002086220680168C6
:10235000FF22A13291430160206881684908490049
:1023600081602020A067E06780342060002028750D
:10237000032005B0F0BD20680168FF22A13291431F
:102380000160206881684908490081602020A067B9
:10239000E067EBE72068C1693846884305D0002133
:1023A00003988142BCD00020E3E70121F8E7000058
:1023B00010B50248FFF7B8F810BD0000AC000020CF
:1023C000F8B5040C8BB2264682B25E430D0C104663
:1023D000370C5843360480190021794116466E4364
:1023E000370C36048019794126466E438919F8BDA9
:1023F0008307FF22DB0E9A408907090E99400028C7
:1024000008DB830809489B001B18186890430843A1
:10241000186070470007000F0838830804489B00C5
:102420001B18D86990430843D861704700E400E066
:1024300000ED00E002E008C8121F08C1002AFAD12E
:1024400070477047002001E001C1121F002AFBD134
:1024500070470000FEF7BEFAFFF783FCFFF7F2FAC1
:10246000FFF7DCFAFFF738FBFFF74CFBFFF770FBD9
:10247000FF200A49F5300860FDF7C6FE0120084933
:10248000800248610720FEF7FBFA01220549064851
:10249000FFF7DEF90028F8D0FEE700001400002066
:1024A0000004014000000020AC00002070B50A4C80
:1024B000002365693021A2694843A1699142FCD09B
:1024C000914201D2521A01E06E1AB218D3180A468C
:1024D0008342F2D370BD000000E000E00000000085
:1024E00000000000010203040607080900000000C4
:1024F0000102030414250008000000202000000051
:10250000342400083425000820000020880500003D
:102510004424000800000000010000000400000046
:102520000000000000127A0000000000000000001F
:0425300000000000A7
:04000005080000C12E
:00000001FF
