:060000000A128A1110280B
:10000800FE000308F2000408F3000A08F4007F0861
:10001800F5000A128A1127280A128A11D2280030FC
:100028008A000408840A820700342A34DE340C3437
:10003800E334EE34E734D034EC34B234F13494346D
:10004800F6347634FB34831603130C1C39288312D8
:100058000C1C39280C1010108710A630F000F00B7B
:10006800332864008312031387148B190B1C602830
:10007800831206080B1007302002031C452887103E
:100088006028200D013E84000A128A1113200A12EA
:100098008A11F0000A128A1113200A128A11F1003B
:1000A8008F000310200D013E84000A128A111320CC
:1000B8000A128A118E0010147508FF0074088A004D
:1000C8007308840072088300FE0E7E0E09008312F6
:1000D8000608A3000630A3052308063A031D762860
:1000E800A11008001A30F700F830F600F60B7A284D
:1000F800F70B7A286400831203130608A20006305F
:10010800A2052208063A03197428A1180800220833
:100118002306031D0800A114211CA3282308043A60
:10012800031D9B2807302002031CA00A080023088F
:10013800023A031D08002008031DA0030800230835
:10014800043A031D080021140B108B150800AC2875
:1001580083160317880189010F30031381000730C4
:10016800860083128714831687108312900110105B
:1001780083160C1483120C100130831696000B178B
:100188008B1708000A128A11AB200A128A11640020
:100198000A128A116B200A128A11CB28A001A10128
:0801A80083010A128A11C62826
:02400E00AA2FD7
:00000001FF
